:020000040800F2
:10000000B8100020AD010008B5010008B7010008D4
:10001000B9010008BB010008BD0100080000000094
:10002000000000000000000000000000BF01000808
:10003000C101000800000000C3010008910E000883
:10004000C7010008C7010008C7010008C701000870
:10005000C7010008C7010008C7010008C701000860
:10006000C7010008C7010008C7010008C701000850
:1000700041090008C701000859090008C701000824
:10008000C701000871090008C7010008C70100087E
:10009000C7010008C7010008C7010008C701000820
:1000A000C7010008C7010008C7010008C701000810
:1000B000C7010008C7010008C7010008C701000800
:1000C000C7010008C7010008C7010008C7010008F0
:1000D000C7010008851200089D120008B51200082B
:1000E000C7010008C7010008C701000800F002F8B6
:1000F00000F04CF80AA090E8000C82448344AAF176
:100100000107DA4501D100F041F8AFF2090EBAE873
:100110000F0013F0010F18BFFB1A43F0010318473B
:10012000C0440000E0440000103A24BF78C878C101
:10013000FAD8520724BF30C830C144BF04680C60ED
:10014000704700000023002400250026103A28BF35
:1001500078C1FBD8520728BF30C148BF0B60704739
:100160001FB59DE8030000F047FA00F023FB0400F0
:100170000020002103F056FB401C606000F072F983
:100180001FBD10B5002000F0EEF910BD00F0ECFA34
:100190001146FFF7E5FF03F039FB00F037FB03B42E
:1001A000FFF7EFFF03BC00F0D9FA000009488047D1
:1001B00009480047FEE7FEE7FEE7FEE7FEE7FEE749
:1001C000FEE7FEE7FEE7FEE704480549054A064B61
:1001D00070470000B10E0008ED000008B80A0020CA
:1001E000B8100020B80C0020B80C002070B50646EE
:1001F00000F04EF90468054630460A22002100F05E
:100200007AF92C6070BD2DE9F041074615460E467F
:10021000102000F041F904000AD06760C4E90265CB
:1002200000F032F90168216004600020BDE8F0812F
:100230000120FBE730B505460B462A4613F8014B73
:1002400012F8010B08B1A042F8D01CB1002802D06E
:100250006D1CF1E7284630BD40EA0103024630B587
:100260009B0710D14FF0013400E008C208C91D1BE4
:100270009D4315EAC41FF8D013F0FF0102F8011BDB
:100280000DD01B0AF8E711F8013B002B02F8013BE7
:1002900005D011F8013B002B02F8013BF3D130BD32
:1002A00010B5431C02E010F8011B71B18107FAD1AF
:1002B0004FF0013202C88C1A8C4314EAC211F9D0F3
:1002C000C01A0A0603D0C01E10BDC01A10BD0A0411
:1002D00001D0801E10BD0902FCD0401E10BD032AB3
:1002E00040F2308010F0030C00F0158011F8013B53
:1002F000BCF1020F624498BF11F801CB00F8013B3A
:1003000038BF11F8013BA2F1040298BF00F801CBFD
:1003100038BF00F8013B11F0030300F02580083AD4
:10032000C0F0088051F8043B083A51F804CBA0E82B
:100330000810F5E7121D5CBF51F8043B40F8043B80
:10034000AFF30080D20724BF11F8013B11F801CBB5
:1003500048BF11F8012B24BF00F8013B00F801CB86
:1003600048BF00F8012B704710B5203AC0F00B8051
:10037000B1E81850203AA0E81850B1E81850A0E8A9
:100380001850BFF4F5AF5FEA027C24BFB1E8185003
:10039000A0E8185044BF18C918C0BDE810405FEA73
:1003A000827C24BF51F8043B40F8043B08BF7047EF
:1003B000D20728BF31F8023B48BF11F8012B28BFF4
:1003C00020F8023B48BF00F8012B70474FF00002B5
:1003D0000429C0F0128010F0030C00F01B80CCF157
:1003E000040CBCF1020F18BF00F8012BA8BF20F8C5
:1003F000022BA1EB0C0100F00DB85FEAC17C24BF19
:1004000000F8012B00F8012B48BF00F8012B7047C2
:100410004FF0000200B5134694469646203922BF9D
:10042000A0E80C50A0E80C50B1F12001BFF4F7AFE8
:10043000090728BFA0E80C5048BF0CC05DF804EBCA
:10044000890028BF40F8042B08BF704748BF20F838
:10045000022B11F0804F18BF00F8012B7047704736
:100460007047704770B5064C7C44064D7D4403E0F0
:10047000206820448047241DAC42F9D170BD0000A3
:10048000A4420000AC420000004870478C0A0020E3
:1004900000487047540A002070B5064600F090F8F6
:1004A000056806F10B0020F00704B4429CBF002051
:1004B00070BD2B466A68BAB11068A04210D304F12F
:1004C000080188423CBF5068586007D35168101932
:1004D00041601168091B016058601460101D70BDF7
:1004E00013465268002AE7D12146284600F070F8EA
:1004F0000028DED170BD2DE9F04791460F468046B9
:100500000446002614F8015B2DB100F051F8006894
:10051000405DC007F6D12B2D02D02D2D18D0641EC2
:100520004A463946204600F0C4F827B13968A1424E
:1005300001D1C7F800804FF0020471050BD540428D
:10054000002803DDFFF7A4FF0460A007BDE8F087E3
:1005500046F48066E4E70028F8DAFFF799FF0460C4
:100560006FF00040F2E72DE9F0410646FFF78CFFFF
:100570008046454613E016B1E068B0420ED12068CF
:100580002860D4E90101D8F800708847204600F0BF
:1005900069F8D8F80000B842EBD100E025462C6895
:1005A000002CE8D1BDE8F08100487047540A0020D3
:1005B00010B500F0FFF8001D10BD00BF693200004B
:1005C000004870475C0A00207047704770477047CA
:1005D00038B504460A4600206946AFF3008000287B
:1005E00008BF38BD02460099204600F0E7F8012018
:1005F00038BD012000F02CB9F8B5AFF300800546F6
:1006000000200C46102000BF0646A819A0420DD9B4
:10061000324669460020AFF30080070008BF00F0B3
:1006200017F90098A04218BF0546C419FFF7C8FF84
:1006300005600746F01D20F007004619284600F027
:100640000AF8B44208BFF8BDA21B31463868BDE8BD
:10065000F84000F0B3B800210160C0E90110704714
:100660001020704770B50446051FFFF7A9FF00680A
:10067000002C14BF446870BD002C18BFAC423CBFB6
:1006800020466468F8D301680A18AA4218BF45607A
:1006900003D12A6805461144016028684119A14226
:1006A0001CBF6C6070BD6168696021680844286087
:1006B00070BD2DE9F05F824615468B4600270AF192
:1006C0000104B9460078302801D09DB113E014F838
:1006D000010B0127782803D0582801D045B10AE042
:1006E0000DB1102D07D1002714F8010B102502E0E1
:1006F000082500E00A250026B0460EE005FB0800AC
:1007000005FB06F101271FFA80F801EB1046B6F54C
:10071000803F00D3B94614F8010B294600F068F871
:100720000028EBDABBF1000F05D00FB1641E00E02A
:100730005446CBF80040B9F1000F06D0FFF7A8FEF1
:1007400002210160C81EBDE8F09F48EA0640FAE7B2
:10075000002801D000F002B87047000001491820BD
:10076000ABBEFEE7260002007546FFF71DFFAE4652
:1007700005006946534620F00700854618B020B5AD
:10078000FFF722FDBDE820404FF000064FF00007C4
:100790004FF000084FF0000B21F00701AC46ACE829
:1007A000C009ACE8C009ACE8C009ACE8C0098D4696
:1007B0007047000000487047740A002003464068F4
:1007C0008C46002818BF88423CBF03464068F8D3D7
:1007D00018681844884207D00CF1030020F0070085
:1007E000001D411A521A0146081D0A60FFF73ABF60
:1007F0003A2800D2303820F02002412A01D3A2F159
:100800003700884201D34FF0FF30704710B50446DF
:10081000AFF300802046BDE81040FFF7C0BC70B5C4
:1008200005460C460A2000E06D1C00F018F835B1B2
:1008300028780028F8D102E0641C00F010F814B108
:1008400020780028F8D1BDE870400A2000F007B8F1
:1008500010B500F00DF8BDE81040FFF779BF08B5FE
:1008600069468DF800000320ABBE08BD704700004C
:1008700010B5012805D0002103A0FFF7D0FF01200B
:1008800010BD09A1F8E7000053494752544D454DAA
:100890003A204F7574206F662068656170206D6521
:1008A0006D6F7279000000003A2048656170206D1C
:1008B000656D6F727920636F727275707465640014
:1008C0004FF0013C50F8042B51F8043B9A4221D1DF
:1008D000A2EB0C03934313EACC1317D150F8042B6B
:1008E00051F8043B9A4215D1A2EB0C03934313EA4F
:1008F000CC130BD150F8042B51F8043B9A4209D188
:10090000A2EB0C03934313EACC13DBD04FF00000AF
:10091000704700BFD01A01BAB1FA81F101F0180195
:1009200022FA01F0CB40C1F12001DBB2C0B2C01A03
:100930002CFA01F3D11A914311EAC311E6D17047A1
:1009400010B50448006818B10248006801F0F8FFCB
:1009500010BD00000C00002010B50448006818B15C
:100960000248006801F0ECFF10BD00000400002008
:1009700010B50448006818B10248006801F0E0FFB3
:1009800010BD00000800002000F0805111B10349A3
:10099000086001E00249486070470000040402401A
:1009A0000000024000F0805111B10349086001E0ED
:1009B0000249486070470000040402400000024001
:1009C00021B1026842F00102026004E002684FF6C1
:1009D000FE731A400260704701460020002201F0B9
:1009E000805313B1054B1A6801E0054B1A6802EAFF
:1009F00001030BB1012000E0002070470004024019
:100A00000000024010B50022026847F6F0739A43D6
:100A10000C6A8B6823430C6923434C6923438C691C
:100A20002343CC6923434C6A23438C6A23431A43F0
:100A30000260CB6843600B6883604B68C36010BD85
:100A40002DE9F04102460025002600200023002465
:100A5000002791F803C00CF00F0591F803C00CF0CB
:100A6000100CBCF1000F03D091F802C04CEA050550
:100A700091F800C0BCF1000F31D0146800202BE0C9
:100A80004FF0010C0CFA00F3B1F800C00CEA0306B9
:100A90009E4220D183004FF00F0C0CFA03F7BC43A9
:100AA00005FA03FC4CEA040491F803C0BCF1280FDA
:100AB00006D14FF0010C0CFA00FCC2F814C00AE099
:100AC00091F803C0BCF1480F05D14FF0010C0CFAAE
:100AD00000FCC2F810C0401C0828D1D31460B1F843
:100AE00000C0BCF1FF0F34DD546800202EE000F19F
:100AF000080C4FF0010808FA0CF3B1F800C00CEA3A
:100B000003069E4221D183004FF00F0C0CFA03F72D
:100B1000BC4305FA03FC4CEA040491F803C0BCF1A1
:100B2000280F05D100F1080C08FA0CF8C2F814805F
:100B300091F803C0BCF1480F07D100F1080C4FF049
:100B4000010808FA0CF8C2F81080401C0828CED31F
:100B50005460BDE8F0810000F0B50A46002300248F
:100B60000021002500F00046B6F1004F02D11D4ED5
:100B7000F16901E01B4E7168C0F3034583B200F4D4
:100B80004016B6F5401F08D121F07061154E766809
:100B900026F07066134F7E6012E000F48016B6F502
:100BA000801F06D1032606FA05F4A14341F07061C7
:100BB00006E0460D360103FA06F6B14341F07061D6
:100BC00022B1460D360103FA06F6314300F0004625
:100BD000B6F1004F02D1034EF16101E0014E7160A8
:100BE000F0BD0000000001404161704701617047A5
:100BF00070B5002100230F22C47804B3154C24687B
:100C000004F4E064C4F5E064210AC1F10403CA40BD
:100C1000447804FA03F184781440214309010E4C0E
:100C20000678A155047804F01F050124AC4005782E
:100C30006D11AD0005F1E025C5F8004109E004782B
:100C400004F01F050124AC40044D0678761145F8E8
:100C5000264070BD0CED00E000E400E080E100E023
:100C600002490143024A1160704700000000FA0582
:100C70000CED00E029B1064A52690243044B5A6167
:100C800004E0034A52698243014B5A6170470000F5
:100C90000010024029B1064AD2690243044BDA61CE
:100CA00004E0034AD2698243014BDA6170470000D5
:100CB0000010024029B1064A92690243044B9A612E
:100CC00004E0034A92698243014B9A617047000035
:100CD0000010024030B500210022002400232D4DD9
:100CE0006D6805F00C0121B1042905D0082923D134
:100CF00005E0294D056022E0274D05601FE0254DE8
:100D00006D6805F47012234D6D6805F4803402257A
:100D100005EB92421CB9214D554305600BE01D4D7A
:100D20006D6805F400351DB11C4D5543056002E0AA
:100D3000194D5543056002E0174D056000BF00BF27
:100D4000144D6D6805F0F0010909154D6B5C0568DF
:100D5000DD4045600F4D6D6805F4E061090A104DF6
:100D60006B5C4568DD4085600A4D6D6805F4605137
:100D7000C90A0B4D6B5C4568DD40C560054D6D686B
:100D800005F44041890B074D6B5CC568B5FBF3F575
:100D9000056130BD0010024000127A0000093D00DC
:100DA000480000205800002010B500F001F810BDE8
:100DB0000CB50020019000903348006840F480306A
:100DC0003149086000BF3048006800F400300090EE
:100DD0000198401C0190009818B90198B0F5A06FD7
:100DE000F1D12948006800F4003010B101200090D2
:100DF00001E0002000900098012843D123480068BA
:100E000040F01000214908600846006820F0030007
:100E100008600846006840F0020008601A48406810
:100E2000194948600846406848600846406840F4F0
:100E3000806048600846406820F47C10486008469E
:100E4000406840F4E81048600846006840F0807050
:100E5000086000BF0C48006800F000700028F9D05E
:100E60000948406820F00300074948600846406888
:100E700040F00200486000BF0348406800F00C00EA
:100E80000828F9D10CBD00000010024000200240EB
:100E900010B5044A044B054903C902F0A7FD034AF3
:100EA00003C210BDCDCCCCCCCCCCFC3F400000204C
:100EB00010B51348006840F0010011490860084669
:100EC0004068104908400E494860084600680E49CD
:100ED00008400B4908600846006820F4802008603C
:100EE0000846406820F4FE0048604FF41F00886008
:100EF000FFF75AFF4FF000600449086010BD000082
:100F0000001002400000FFF8FFFFF6FE08ED00E0D1
:100F100021B1028842F00102028004E002884FF60B
:100F2000FE731A400280704770B50024002200232F
:100F3000058C4FF6FE7635400584028C8388048B41
:100F40004FF68F752C40B51E2C400D882C43751E16
:100F50002A400D892A434D882A43144DA8420BD0BC
:100F6000134DA84208D0134DA84205D0124DA842F7
:100F700002D0124DA84213D14FF6F7752A404D8981
:100F80002A434FF6FB752A408D882A434FF6FF65AA
:100F90002B404FF6FF552B408D892B43CD892B439A
:100FA00083800483CD888586028470BD002C014037
:100FB000003401400040014000440140004801402D
:100FC0000A460021018B4FF6F77319401143018344
:100FD0007047000070B5002400220023058C4FF6F6
:100FE000EF7635400584028C8388048B48F6FF75C4
:100FF0002C404FF6FF452C400D884FF6FF7606EA51
:1010000005252C434FF6DF752A400D8906EA0515A4
:101010002A434D8806EA05152A43154DA84202D0F9
:10102000144DA8421DD14FF67F752A404D894FF6C9
:10103000FF7606EA05152A434FF6BF752A408D88CC
:1010400006EA05152A434FF6FF352B404FF2FF7590
:101050002B408D8906EA85052B43CD8906EA850557
:101060002B4383800483CD880587028470BD0000F4
:10107000002C0140003401400A460021018B4FF250
:10108000FF7319404FF6FF7303EA022319430183EC
:101090007047000070B5002400220023058C4FF635
:1010A000FF6635400584028C8388848B4FF68F75EC
:1010B0002C404FF6FC752C400D882C434FF6FF5505
:1010C0002A400D894FF6FF7606EA05252A434D880A
:1010D00006EA05252A43154DA84202D0144DA84220
:1010E0001DD14FF2FF752A404D894FF6FF7606EA73
:1010F00005252A434FF6FF352A408D8806EA052547
:101100002A434EF6FF752B404DF6FF752B408D8917
:1011100006EA05152B43CD8906EA05152B43838086
:101120008483CD888587028470BD0000002C014037
:10113000003401400A460021818B4FF6F7731940B5
:10114000114381837047000070B500220023002402
:10115000058C4EF6FF7635400584038C8488828B9F
:1011600048F6FF752A404FF6FF452A400D884FF696
:10117000FF7606EA05252A434DF6FF752B400D89BB
:1011800006EA05352B434D8806EA05352B430B4D02
:10119000A84202D00A4DA84208D14BF6FF752C4058
:1011A0008D894FF6FF7606EA85152C43848082836D
:1011B000CD88A0F84050038470BD0000002C014091
:1011C000003401400A460021818B4FF2FF73194021
:1011D0004FF6FF7303EA022319438183704700002F
:1011E000002202881D4B98420ED01D4B98420BD016
:1011F000B0F1804F08D01B4B984205D01A4B984253
:1012000002D01A4B984204D14FF68F731A404B8884
:101210001A43174B984207D0164B984204D04FF60A
:10122000FF431A40CB881A4302808B8883850B8842
:1012300003850A4B98420BD0094B984208D00E4BBD
:10124000984205D00D4B984202D00D4B984201D1E7
:101250000B7A03860123838270470000002C014033
:10126000003401400004004000080040000C004031
:1012700000100040001400400040014000440140C4
:101280000048014010B50448006818B102480068E1
:1012900001F0EAFA10BD00000400002010B5044877
:1012A000006818B10248006801F0DEFA10BD0000C5
:1012B0000800002010B50448006818B10248006812
:1012C00001F0D2FA10BD00000C00002010B5002281
:1012D000002340F66A14A14200D100BF0A12012483
:1012E0009440A3B2DC43048010BD21B1828942F452
:1012F0000052828104E082894DF6FF731A40828198
:1013000070471AB1838A0B43838202E0838A8B433E
:101310008382704702460020B1F5007F00D100BFF4
:1013200013880B400BB1012000E00020704770B51E
:101330000246002400230025002040F66A16B14230
:1013400000D100BFC1F3421501F01F03012606FAC8
:1013500003F3012D02D19689334006E0022D02D11C
:10136000168A334001E0968A33400C12012606FAB1
:1013700004F41688344013B10CB1012000E00020C1
:1013800070BDF0B50346002400260025002040F67D
:101390006A17B94200D100BF1846C1F3421401F0E8
:1013A0001F06012707FA06F5012C01D10C3004E0D5
:1013B000022C01D1103000E014301AB107682F431D
:1013C000076002E00768AF430760F0BD2DE9F04712
:1013D00086B005460E460024A24600BFA14600275F
:1013E000B08900B100BF2F462C8A4CF6FF70044034
:1013F000F08804432C82AC894EF6F3100440B08888
:1014000031890843718908430443AC81AC8A4FF6A3
:10141000FF400440B0890443AC8201A8FFF75AFCA6
:101420001F48874202D1DDF810A001E0DDF80CA0D2
:10143000A88900F4004040B10AEBCA0000EB0A1092
:1014400031684900B0FBF1F807E00AEBCA0000EB95
:101450000A1031688900B0FBF1F86420B8FBF0F0A5
:1014600004012009642101FB1089A88900F40040CF
:1014700040B1322000EBC900B0FBF1F000F00700F2
:10148000044308E0322000EB09106421B0FBF1F0C6
:1014900000F00F0004432C8106B0BDE8F087000087
:1014A0000038014001468888C0F308007047C1F346
:1014B000080282807047F0B503460C4600218C4636
:1014C0000BB90020F0BD18E0CD134FF6FF7000EA15
:1014D0004101187840FA0CF000F0010001430CF1D2
:1014E000010CBCF1070F04DD4FF0000C5B1C601E0B
:1014F00084B215B148F205004140002CE4DC002222
:1015000009E0CD134FF6FF7000EA410115B148F232
:1015100005004140521C102AF3DB00264FF4004224
:10152000012707E002EA010010B146EA070086B28F
:1015300052107F00002AF5D13046C3E72DE9F0476D
:101540004FF0E021886902F05DFC06460022174B4F
:1015500002F000FB04460D46154A164B164903C916
:1015600002F044FA804622462B4602F025FD134A3B
:1015700003C2134811490CC803C902F01DFD0446FB
:10158000104A114B02F0E2FC07D2094A094B0B4901
:1015900003C902F011FD094A03C2084903C9084AF8
:1015A00003C2064903C9BDE8F0870000882A6141EB
:1015B000CDCCCCCCCCCCFC3F400000203000002077
:1015C0003800002062105839B4C8FC3F2DE9F14FB3
:1015D000FFF7B4FF82468B4600BF009802F012FC72
:1015E00004460D46FFF7AAFF804652465B4602F0CE
:1015F000E3FC064622462B4602F018FCEDD3BDE87C
:10160000F88F00002DE9F14FFFF798FF82468B46D7
:1016100000BF009802F0F6FB06460022094B02F0DC
:1016200099FA04460D46FFF789FF064652465B4687
:1016300002F0C2FC804622462B4602F0F7FBE8D3BC
:10164000BDE8F88F00408F404FF0E021096921F09C
:1016500004014FF0E022116103495161114609690B
:1016600041F00301116170474031F700C1647047D8
:101670002DE9F04F8BB004468946FFF75FFF074620
:1016800002F082F90A9094F8500018B900200BB0CB
:10169000BDE8F08F0026B2460025AB465DE0A06CA9
:1016A00001F0DAF80646062E53DD00254CE0012253
:1016B00006A9A06C01F0BCF89DF818002B2841D1B8
:1016C00094F8510058B906A9E06C49A349A2CDE9A4
:1016D000001047A104F10C0001F000FE2AE0E06CCC
:1016E00002F042FEC7B23A4641A104F10C0001F0FB
:1016F000E3FFF8B13FA104F1140001F0F7FF074642
:101700003CA1384601F0F2FF074639A104F114006C
:1017100001F0ECFF804667B1B8F1000F09D07F1CE3
:10172000002088F80000394606A8FEF795FD012044
:10173000ADE700BF06A8FEF759FD1FFA80FA4FF08B
:10174000010B05E0681C85B2B54201DA322DAEDB33
:1017500000BFBBF1000F00D018E0E06C02F016FDF6
:10176000CDE904010A9802F011FD07468846FFF70B
:10177000E5FE3A464346CDE9000102F01DFCCDE905
:101780000201DDE9042302F051FB88D300BF0025EC
:1017900011E0A06C01F060F800280CDD09EB0501F8
:1017A0000122A06C01F044F8681C85B2554501D0B7
:1017B000322D00D118E0E06C02F0E8FCCDE9040124
:1017C0000A9802F0E3FC07468846FFF7B7FE3A4660
:1017D0004346CDE9000102F0EFFBCDE90201DDE96E
:1017E000042302F023FBD4D300BF28464FE70000B8
:1017F0003A0000002C00000070B504460D46164665
:101800004FF0FF333246294604F10C0001F012FD7F
:1018100070BD70B504460D4684F85150294604F158
:101820000C0001F08BFE70BD2DE9F84304460D4617
:1018300016461F46DDF820804FF0FF303B4632460B
:101840002946009004F10C0001F07AFD18B1012046
:1018500084F8500002E0002084F8500094F8500012
:10186000BDE8F88370B504460D460022294604F110
:101870000C0001F02FFFA0F10C0420460649216066
:1018800000BF044605482060A564002084F850008D
:101890000348E064204670BDC04500089845000834
:1018A000000040400146012070470000FEB505469B
:1018B000334800F0D1FF052860DD05F17E01314895
:1018C000FFF7D6FE3049088008460088002855DD1D
:1018D0002E4A02A9284600F0D5F904462CA12E482C
:1018E00001F0D8FA0746214601F0E6FA06462BA198
:1018F00001F0D0FA2A48B0F90000844235D129A17C
:10190000254801F0C7FA21480078012821D12DA1EE
:10191000214801F0BFFA01210298C078CDE9000109
:1019200002988378427801782C4800F075FD02987F
:101930000279012319462A4800F008FE02984279EC
:1019400001230221264800F001FE284600F082F81B
:1019500013E00E48007803280FD122A10E4801F0B1
:1019600099FA284600F076F807E02348B0F900001D
:10197000844202D1284600F041F800BFFEBD0000BD
:10198000B4020020000500201C0000201E000020E2
:10199000747970653A000000680000200D0A0000AC
:1019A0002000002050726F746F636F6C3A3A4D6F75
:1019B000746F7247726F75703A3A646174615479EA
:1019C000706500004F7065726174696F6E54797054
:1019D000655F436F6E74726F6C00000054050020E9
:1019E0007C0500204F7065726174696F6E54797068
:1019F000655F41736B0000002200002070B5044653
:101A0000022140F2844001551148B0F9001040F223
:101A100082400153012140F292400153801C005941
:101A2000017004F59061204600F0D8F858B101200B
:101A300084F8A904FFF782FD054601F0A5FFC4F86C
:101A4000AC04012070BD002084F8A90400BFF9E7B0
:101A50002200002070B50446022140F28440015566
:101A60001F48B0F9001040F282400153082140F2B3
:101A700092400153801C01591A4800F031FB40F29A
:101A800094400059021D0121174800F083FB40F2E9
:101A900094400059421D0221134800F07BFB0121B4
:101AA00040F294400059817140F294400059C17154
:101AB00004F59061204600F091F858B1012084F8B7
:101AC000A904FFF73BFD054601F05EFFC4F8AC0436
:101AD000012070BD002084F8A90400BFF9E70000D0
:101AE00020000020540500207C05002007B5034697
:101AF000BDF80820D0B2BDF9082012120292BDF83C
:101B00000820D2B20292BDF8082042EA002212B2A6
:101B10000292BDF808200A800EBD000010B50446F0
:101B2000064800F082FA204600F05EF90520FFF733
:101B30004DFD03A1084801F0ADF910BD10000020D3
:101B4000696E697469616C697A6520636F6D706C28
:101B5000657465210A000000680000202DE9F04747
:101B600082461548006802F011FB06460F46FFF753
:101B7000E5FC804632463B4602F01EFA044600224F
:101B80000E4B02F0E3F90AD8FFF7D8FC044601F047
:101B9000FBFE094908600AA10A4801F07BF950469A
:101BA000FFF780FE18B908A1064801F073F9504606
:101BB000FFF77CFEBDE8F0871800002000003440ED
:101BC0002E00000068000020686172656477617211
:101BD00065206572726F72210A00000070B50546BB
:101BE0000C46B4F9002005F17E012846FFF77EFF80
:101BF000B4F9022005F180012846FFF777FF21792B
:101C000082204155D4F8051005F18300C5F88310F2
:101C1000B4F80910A5F88710D4F80B10801DC5F88A
:101C20008910B4F80F10A5F88D10B4F91220811D99
:101C30002846FFF75BFFB4F9122005F191006169B6
:101C4000FEF74DFB608A133081B205F17E00FFF78D
:101C500032FC00B22083B4F91820B4F9123005F137
:101C6000910019182846FFF741FFB4F9120000F15E
:101C7000150205F17E010248FFF7BEFD70BD0000B0
:101C8000000500202DE9F04104460D46164694F863
:101C90007E00AB2803D17F20005DAC2802D000205D
:101CA000BDE8F0819020015D8F20005D41EA0020B9
:101CB00001B240F292400153005B133081B204F153
:101CC0007E00FFF7F8FB07B2B4F99204143004F178
:101CD0007E010A5CB4F992041330085C42EA0020E9
:101CE0000FFA80F8474501D00020D9E78220015D36
:101CF00040F2844001558120015D8020005D41EA71
:101D0000002001B240F282400153D4F8832004F253
:101D10008540C4F88524B4F88710A4F88914D4F851
:101D20008920801DC4F88B24B4F88D10A4F88F147A
:101D30009020015D8F20005D41EA002001B240F259
:101D400092400153B4F99224811C085904F1910185
:101D5000FEF7C5FAB4F982042149B1F900108842AE
:101D600026D104F29C40286040F29440015904F5C9
:101D700090600A68C4F89C248988A4F8A01440F2F2
:101D800094400059C17940F294400059807941EA69
:101D9000002001B240F2A2400153B4F9A22440F263
:101DA00094431B59991D831C1859FEF798FA0FE0AC
:101DB000B4F982040B49B1F90010884208D104F546
:101DC0009560286040F294400059007884F8A80497
:101DD00040F28440005D3070B4F9820460E7000096
:101DE00020000020220000201CB50446394909B11A
:101DF0000C3100E00021084601F028FB50B936A163
:101E0000384801F047F84FF496720321364800F045
:101E100015F91CBD35A1334801F03CF82D4909B135
:101E20000C3100E000210846002101F0A9FB2949FE
:101E300009B10C3100E0002108460022032101F025
:101E4000BDFB00212348FFF7E4FC00200321CDE97E
:101E50000010204909B10C3100E00021084601239F
:101E600004F10F02214601F057F81A4909B10C316B
:101E700000E000210846002304F1300204F12101B2
:101E800001F0F6FA1E491348FFF7F0FB09E01DA127
:101E9000144800F0FFFF4FF496720421124800F03E
:101EA000CDF80020034641F69A721CA10090094823
:101EB000FFF7BAFC0028EAD01CA10A4800F0EAFFAC
:101EC000C8220221084800F0B9F8074800F0ADF830
:101ED00000BF9EE7000500206E6F207769666921CC
:101EE0000A0A0A006800002010000020776966696D
:101EF000206973206865616C7468790A00000000CD
:101F000000002041636F6E6E6563742073657276A6
:101F10006572206661696C210A0A0A003139322E25
:101F20003136382E3139312E3100000057494649BB
:101F300020696E697469616C697A6520636F6D7080
:101F40006C657465210A000010B504460F21204617
:101F5000FEF75EFA092223A12046FEF705FA1221B8
:101F600004F10F00FEF732FA21A0016844F80F1FB8
:101F70004168616001892181807AA0720F3C0F2144
:101F800004F12100FEF722FA0D221CA104F1210028
:101F9000FEF7A5F9122104F13000FEF739FA0A2202
:101FA0001AA104F13000FEF7DFF94AF6AC30A4F8CC
:101FB000800419490A6804F28540C4F88524898898
:101FC000A4F8891404F1420040F2944108513230DF
:101FD00040F2A4410851012140F2A24001532046A1
:101FE00010BD0000434D43432D4544550000000003
:101FF000373431383532393633200000496E66695E
:102000006E6974655975616E0000000037343138AF
:1020100035323936330000008845000810B50446D3
:102020002179206800F074FB10BD10B504462279B8
:1020300082F00101206800F06BFB10BD2DE9F0413A
:1020400007460C46154600260DE03846FFF7E6FF2A
:102050002846FFF7D7FA3846FFF7E7FF2846FFF78D
:10206000D1FA701CC6B2A642EFDBBDE8F08170B5B4
:1020700004460E461546266015B10120207101E088
:10208000002020712046FFF7D0FF204670BD0000E1
:102090002DE9F84780460C460025104890FBF4F6E1
:1020A00090FBF4F104FB11074FF000094FF0000A18
:1020B0003FB953464A4631464046009500F080FA03
:1020C0000AE0B7F5004F00D9761C53464A46314620
:1020D0004046009500F074FABDE8F88700A24A0473
:1020E0002DE9F04704460D46E08C02F05DF980468C
:1020F0002168888E02F058F98146414602F072F854
:102100000746234902F064F9064602F02DF92870CB
:10211000E08C02F049F980462168088F02F044F90A
:102120008146414602F05EF80746194902F050F92F
:10213000064602F019F96870E08C02F035F9804625
:102140002168888F02F030F98146414602F04AF852
:1021500007460F4902F03CF9064602F005F9A8705F
:10216000E08C02F021F980462168B1F8400002F0CD
:102170001BF98146414602F035F80746044902F052
:1021800027F9064602F0F0F8E870BDE8F087000095
:102190000000C8422DE9F04704460E461546012EC0
:1021A00006D0022E19D0032E2CD0042E55D13EE09D
:1021B000E08C02F0F9F881462168888E02F0F4F88C
:1021C0008246494602F00EF88046254902F000F9A1
:1021D000074602F0C9F828703FE0E08C02F0E4F80E
:1021E00081462168088F02F0DFF88246494601F0F7
:1021F000F9FF80461A4902F0EBF8074602F0B4F8FE
:1022000028702AE0E08C02F0CFF881462168888FA0
:1022100002F0CAF88246494601F0E4FF80461049C0
:1022200002F0D6F8074602F09FF8287015E0E08C1F
:1022300002F0BAF881462168B1F8400002F0B4F823
:102240008246494601F0CEFF8046054902F0C0F8BB
:10225000074602F089F8287000BF00BFBDE8F0878C
:102260000000C8422DE9F05F04460D4616461F46A1
:10227000DDE90CABDDE90A89256001210420FEF7C8
:1022800019FD01210820FEF715FD01210846FEF782
:1022900011FDB5F1804F1CD101210846FEF7FAFC73
:1022A00006F00100022101EA47010843042101EA86
:1022B00088010843082101EAC9010843208103215C
:1022C000A1721821E17204F108014F48FEF7B8FB32
:1022D00048E04E48854225D101210220FEF7DAFC74
:1022E000402000EA8610802101EAC71108432081BE
:1022F0000321A1721821E17204F108014248FEF79E
:102300009FFB08F00100022101EA490108432081F6
:102310000321A1721821E17204F108013C48FEF783
:102320008FFB1FE03B4885421CD101210420FEF7B2
:10233000B1FC402000EA8610802101EAC711084361
:10234000A91501EA08210843691501EA4921084352
:1023500020810321A1721821E17204F108012C48A7
:10236000FEF76EFBE08C401E2082A088401EA081FC
:1023700000216182E18104F10C012846FEF730FF63
:102380006020E082012121830021E183E08C00EBC9
:10239000D0714910A18304F116012846FEF7C4FD4F
:1023A00008212846FEF70CFEE08C00EBD0714910A6
:1023B000A18304F116012846FEF70CFE08212846E9
:1023C000FEF75AFEE08C00EBD0714910A18304F1B6
:1023D00016012846FEF75EFE08212846FEF7AAFEF3
:1023E000E08C00EBD0714910A18304F1160128465E
:1023F000FEF7AAFE08212846FEF7E4FE0121284642
:10240000FEF786FDBDE8F09F000801400004004093
:10241000000C0140000800402DE9F04F85B0044653
:102420000D4616461F46DDF838900F9860B9C5F185
:102430006400C5B2C6F16400C6B2C7F16400C7B299
:10244000C9F1640000F0FF09E08C01F0ADFF0290DB
:10245000284601F0A9FF3949009001F0C3FE019020
:10246000029901F0B5FF039001F07EFF1FFA80F89A
:10247000E08C01F099FF0290304601F095FF2F4962
:10248000009001F0AFFE0190029901F0A1FF0390CE
:1024900001F06AFF1FFA80FAE08C01F085FF0290DC
:1024A000384601F081FF2549009001F09BFE019024
:1024B000029901F08DFF039001F056FF1FFA80FB97
:1024C000E08C01F071FF0290484601F06DFF1B495E
:1024D000009001F087FE0190029901F079FF0390CE
:1024E00001F042FF80B204902946154800F0E4FC58
:1024F00014A1039000F0CEFC4146114800F0DCFC32
:1025000010A1039000F0C6FC2068A0F83480206879
:10251000A0F838A02068A0F83CB004982168A1F881
:1025200040002068818E064800F0C6FC06A103909A
:1025300000F0B0FC05B0BDE8F08F00000000C8421C
:102540006800002020000000000000002DE9F84F86
:1025500004460F4616469846B8F1000F02D1C6F160
:102560006400C6B2E08C01F01FFF0090304601F01D
:102570001BFF8346114901F035FE8246009901F0A8
:1025800027FF814601F0F0FE85B2012F06D0022F11
:1025900007D0032F08D0042F0DD108E020688586CE
:1025A00009E02068058706E02068858703E0206849
:1025B000A0F8405000BF00BFBDE8F88F0000C8423F
:1025C000F0B50446059D012012E0B1FBF0F600FBDA
:1025D00016165EB9B1FBF0F64FF6FF77BE4205D294
:1025E000A080B1FBF0F6E684012504E0461CB0B201
:1025F000B0F5966FE9DD00BFCDB9012013E0B1FB66
:10260000F0F2B1FBF0F600FB16134FF6FF76B24284
:1026100007D247F6F676B34203D2A080E2840125C2
:1026200004E0461CB0B2B0F5966FE8DD00BFF0BD27
:102630002DE9FF5F04460E4617469846DDE9105B1C
:10264000DDE90E9A0020A080E08429462046FFF7AD
:102650001FFDE58043463A4631462046CDE9025B00
:10266000CDE9009AFFF7FEFD204604B0BDE8F09FDB
:1026700010B504461F496068884204D10121042036
:10268000FEF718FB34E01C496068884204D1012140
:102690000820FEF70FFB2BE018496068884204D140
:1026A00001211020FEF706FB22E0154960688842F0
:1026B00004D101212020FEF7FDFA19E011496068DC
:1026C000884204D101214020FEF7F4FA10E00E49BF
:1026D0006068884204D101218020FEF7EBFA07E010
:1026E0000A496068884203D101218015FEF7E2FAA9
:1026F00010BD000000080140000C01400010014026
:102700000014014000180140001C0140002001405D
:1027100070B504460D46002D07DD2289074B33F8BE
:1027200012106068FEF762FA06E02289034B33F864
:1027300012106068FEF758FA70BD00006845000886
:102740002DE9F84304460F4615461E46DDF8208065
:10275000267084F80180676025812046FFF788FF96
:10276000074830F81500ADF800008DF802808DF8AC
:10277000036069466068FEF763F92046BDE8F883A8
:10278000684500082DE9F04786B0044688460025D4
:10279000A94600BF0027AA46D4F820A201A8FEF748
:1027A00099FA2248824502D1DDF8109001E0DDF867
:1027B0000C90D4F82002808900F4004040B109EB6D
:1027C000C90000EB09104FEA4801B0FBF1F607E041
:1027D00009EBC90000EB09104FEA8801B0FBF1F6E4
:1027E0006420B6FBF0F005012809642101FB1067A5
:1027F000D4F82002808900F4004040B1322000EB80
:10280000C700B0FBF1F000F00700054308E03220FC
:1028100000EB07106421B0FBF1F000F00F0005435E
:10282000D4F820120D8106B0BDE8F08700380140D1
:1028300070B504460E46154604F5827001F08FF817
:10284000A84201DA002070BD2A46314604F58270A4
:1028500001F03AF80120F6E710B5044604F582705D
:1028600001F07DF810BD000038B5044640F2255156
:10287000D4F82002FEF75BFD90B1D4F82002FEF7F9
:1028800011FEC0B26946009004F5827000F0FAFFB4
:1028900040F22551D4F82002FEF718FD002500BFB4
:1028A00040F22771D4F82002FEF741FDE8B120463E
:1028B00001F055F8002809DD1F49204600F0C8FF47
:1028C0001D490978D4F82002FEF7F1FD204601F0F9
:1028D00046F848B9002240F22771D4F82002FEF7EA
:1028E00050FD002084F82C02012540F22661D4F826
:1028F0002002FEF71CFDE8B1204601F030F8002868
:1029000009DD0E49204600F0A3FF0C490978D4F8F0
:102910002002FEF7CCFD204601F021F848B9002244
:1029200040F22661D4F82002FEF72BFD002084F847
:102930002C020125284638BD01000020020000209D
:1029400070B50446D4F82402FEF746F801283AD1BF
:10295000D4F82802FEF726F8D4F82402FEF714F87B
:102960000021D4F81C02FEF72BF8204600F0F7FFF8
:10297000002825DD204600F0F2FF142810DC204658
:1029800000F0EDFFD4F81C124860204600F0E7FF8D
:1029900005462A4604F50271204600F095FF09E03D
:1029A0001420D4F81C124860142204F50271204649
:1029B00000F08AFF0121D4F81C02FEF701F802E0C2
:1029C000002084F82C0270BD2DE9F04104460E462B
:1029D0001546AAB23146204600F098FF94F82D0221
:1029E00078B394F82C0260BB204600F0B8FF0028B2
:1029F00027DD012084F82C02204600F0B0FF1428C7
:102A000010DC204600F0ABFFD4F81C1248602046D2
:102A100000F0A5FF07463A4604F50271204600F093
:102A200053FF09E01420D4F81C124860142204F566
:102A30000271204600F048FF0121D4F81C02FDF786
:102A4000BFFF94F82D0230BB94F82C0218BB20462F
:102A500000F085FF00281EDD40F22661D4F8200238
:102A6000FEF734FC012240F22661D4F82002FEF782
:102A700088FC4021D4F82002FEF74CFC012084F8A9
:102A80002C020649204600F0E3FE04490978D4F8F8
:102A90002002FEF70CFD0120BDE8F08100000020BF
:102AA0002DE9F04F99B004460E4692469B46229F70
:102AB000204600F062FF044604F5827000F05DFFDE
:102AC000A0F58274002084F82C0284F82DB2032033
:102AD00084F82E0210230122CE49009004F50D70D7
:102AE000FFF72EFEA0F50D74032010230122C94923
:102AF000009004F51070FFF723FEA0F5107400207D
:102B00001890179001210846FEF7D4F8012E2ED117
:102B1000C148C4F820024FF0250894F82D0250B1A6
:102B2000BE48C4F81C024FF00E097003C4F824021A
:102B30004010C4F82802BA480460012F0DD10121C9
:102B40008803FEF7B7F801210420FEF705F80620F8
:102B5000189007201790B34D7DE001218803FEF700
:102B6000A9F8092018900A201790AA4D73E0022EA8
:102B70002FD1AD48C4F820024FF0260894F82D025A
:102B800058B1A6483C30C4F81C024FF0110980042B
:102B9000C4F824024010C4F82802A4480460012F9D
:102BA0000DD101214804FEF775F801210820FDF739
:102BB000D3FF05201890062017909D4D4BE0012172
:102BC0004804FEF767F80220189003201790914DF3
:102BD00041E0032E3FD19748C4F820024FF0270868
:102BE00094F82D0258B18D482838C4F81C024FF0D3
:102BF0000C092020C4F824021020C4F828028E48B2
:102C00000460012F0DD101218804FEF743F8012152
:102C10008A48FDF7A1FF0A2018900B201790884DD5
:102C200019E0112F0ED101218804FEF733F801219C
:102C300082482030FDF790FF082018900920179057
:102C40007B4D08E001218804FEF724F80A20189043
:102C50000B201790734D012018230090294610A8CF
:102C6000189AFFF76DFD01200423009029460DA856
:102C7000179AFFF765FD0A2210A904F50D70FDF7FC
:102C800073FB0A220DA904F51070FDF76DFBCDF85A
:102C90004CA02898ADF850002998ADF8520027981C
:102CA000ADF854000020ADF858000C20ADF85600E7
:102CB00013A9D4F82002FEF789FB0121D4F82002E1
:102CC000FEF713FBC4F830A294F82D02002840D080
:102CD00001228021D4F82002FEF713FB01210846CF
:102CE000FDF7C8FFD4F82002001D019004F5027022
:102CF0000290102003900120049000200590802075
:102D000006900020079008900990269820B101288D
:102D100006D002280CD107E04FF440500A900AE098
:102D20004FF400500A9006E04FF480500A9002E001
:102D300000200A9000BF00BF00200B9001A9D4F82A
:102D40001C02FDF75FFE0021D4F81C02FDF738FEDF
:102D500006E0002240F22661D4F82002FEF711FBC3
:102D6000239830B1012809D002280CD004280FD1B3
:102D700013E04FF4E060FDF773FF13E04FF4C06021
:102D8000FDF76EFF0EE04FF4A060FDF769FF09E06C
:102D90004FF48060FDF764FF04E04FF44070FDF7EE
:102DA0005FFF00BF00BF8DF8308024988DF83100A0
:102DB00025988DF8320001208DF833000CA8FDF71E
:102DC00017FF012240F22551D4F82002FEF7D9FA6C
:102DD00094F82D02D0B18DF8309024988DF8310000
:102DE00025988DF832000CA8FDF702FFD4F81C02DC
:102DF000006840F00200D4F81C120860D4F81C02ED
:102E0000006840F00800D4F81C120860204619B091
:102E1000BDE8F08F00080140003801404400024046
:102E200004000020000C0140004400400800002085
:102E300000140140004800400C0000201000140065
:102E4000001001400D4AD0F82012914203D1002118
:102E50000B4A116010E00B4AD0F82012914203D1C6
:102E60000021094A116007E0084AD0F82012914277
:102E700002D10021064A116070470000003801406D
:102E800004000020004400400800002000480040EA
:102E90000C00002070B506460C460025002001E01D
:102EA0006D1C401C215C0029FAD12A46214630467F
:102EB000FFF78AFD304670BDFEB506460C4600277A
:102EC0000025002C01DA0127644200BF681CC5B24E
:102ED0000A2094FBF0F100FB11403030C0B2C5F184
:102EE0000A010DF801000A2094FBF0F4002CEDD14A
:102EF000012F07D12D21681CC0B20546C0F10A0080
:102F00000DF800100DF10A00411B2A463046FFF76C
:102F10005BFD3046FEBD00002DE9F04F85B0044654
:102F2000884616461F460F9D022D03DD002005B082
:102F3000BDE8F08F012D04D123A12068FFF7AAFF7F
:102F40000AE0022D04D124A12068FFF7A3FF03E0CB
:102F500025A12068FFF79EFF26A12068FFF79AFFB2
:102F600041460090FFF796FF23A10190FFF792FFE3
:102F700031460290FFF78EFF20A10390FFF78AFFF2
:102F800083463946FFF798FF82461DA1FFF782FF6F
:102F900081460E99FFF790FF1AA10490FFF77AFF80
:102FA000142319A21AA1204600F09BF808B90020AA
:102FB000BDE717A104F1080000F098FB08B101205B
:102FC000B5E70020B3E7000041542B43575341506D
:102FD0005F4355523D00000041542B43575341502D
:102FE0005F4445463D00000041542B435753415038
:102FF0003D00000022000000222C2200222C0000B4
:103000002C0000000D0A00004552524F52000000F3
:103010004F4B00000146002004E0002301F10802AC
:103020001354401C3228F8D370472DE9F04F85B077
:1030300004468B4691469A46002060602046FFF782
:10304000E9FFFEF77BFA05460E462DE011E001226E
:1030500004A92068FFF7ECFB9DF8100000B908E018
:103060009DF810106268501C606004F108008154E3
:1030700000BF2068FFF7F0FB0028E8DC594604F1A8
:10308000080000F033FB58B9494604F1080000F08D
:103090002DFB28B9514604F1080000F027FB18B1B8
:1030A000012005B0BDE8F08F0E9800F0ABFE07469A
:1030B0008846FEF743FA2A463346CDE9000100F080
:1030C0007BFF3A464346CDE9020100F0AFFEBDD397
:1030D000606820B1002104F108006268815400207A
:1030E000DFE72DE9F04F85B004468B4691469A46BE
:1030F000002060602046FFF78DFFFEF71FFA0546AF
:103100000E4627E011E0012204A92068FFF790FB9A
:103110009DF8100000B908E09DF810106268501C7E
:10312000606004F10800815400BF2068FFF794FB41
:103130000028E8DC594604F1080000F0D7FA28B965
:10314000494604F1080000F0D1FA18B1012005B099
:10315000BDE8F08F504600F055FECDE90201FEF7C4
:10316000EDF907462A46334600F026FFCDE9000177
:10317000DDE9022300F05AFEC4D3606820B10021CB
:1031800004F10800626881540020E0E72DE9F74F60
:1031900084B0824693460020CAF804005046FFF7E8
:1031A00039FFFEF7CBF98046894625E014E001227D
:1031B00002A9DAF80000FFF73BFB9DF8080000B910
:1031C0000AE09DF80810DAF80420501CCAF8040040
:1031D0000AF10800815400BFDAF80000FFF73CFB59
:1031E0000028E4DC0AF10800059900F07FFA18B124
:1031F000012007B0BDE8F08F584600F003FE0446FA
:103200000D46FEF79BF942464B46CDE9000100F022
:10321000D3FE064622462B4600F008FEC6D3DAF857
:10322000040028B100210AF10800DAF804208154D2
:103230000020DEE72DE9F05F04460F4616461D46E6
:10324000681CA0B11AA12068FFF724FE8346294616
:10325000FFF732FE824619A1FFF71CFE8146314678
:10326000FFF72AFE804616A1FFF714FE0BE010A11F
:103270002068FFF70FFE81463146FFF71DFE8046AE
:103280000FA1FFF707FE05220EA1204600F014FA59
:1032900010B90020BDE8F09F324639462068FFF79C
:1032A00093FB052309A20BA1204600F0F3F9F1E7F7
:1032B00041542B43495053454E443D002C000000DF
:1032C0000D0A00004F4B0D0A3E2000004552524FA0
:1032D000520000004F4B0D0A000000002DE9F05F86
:1032E0000646894617469846DDF828A00B9801F057
:1032F0003BF800F0FF0B5A4649463046FFF746FFC1
:1033000010B90020BDE8F09F394606F1080000F032
:10331000EDF90446414606F1080000F0E7F90546DC
:1033200064B15DB13846FCF7BBFF0444002028704F
:1033300021465046FCF790FF0120E3E70020E1E73B
:103340002DE9FF4F85B0044615461E46129F2EA05C
:1033500000680490012E05D155208DF810004420FE
:103360008DF81100781C20B328A12068FFF792FD8A
:1033700039460090FFF7A0FD834628A1FFF78AFD9C
:1033800004A90190FFF786FD25A10290FFF782FDB9
:1033900082460699FFF77EFD22A10390FFF77AFD92
:1033A00081462946FFF788FD80461FA1FFF772FD81
:1033B0001FE016A12068FFF76DFD1CA10190FFF72B
:1033C00069FD834604A9FFF765FD15A10290FFF78B
:1033D00061FD82460699FFF75DFD814611A1FFF769
:1033E00059FD80462946FFF767FD0FA10390FFF7BF
:1033F00051FD05200EA312A213A10090204600F05B
:1034000033F909B0BDE8F08F5443500041542B43C9
:10341000495053544152543D000000002C220000FA
:10342000222C2200222C00000D0A000022000000A5
:10343000414C5245415920434F4E4E4543540000A4
:103440004552524F520000004F4B000010B5044649
:1034500004A12068FFF71EFD052204A1204600F00C
:103460002BF910BD41540D0A000000004F4B000025
:103470002DE9F05F04460F4616461D46022D02DD7B
:103480000020BDE8F09F012D04D11BA12068FFF7AB
:1034900001FD0AE0022D04D11BA12068FFF7FAFC10
:1034A00003E01DA12068FFF7F5FC1EA12068FFF7CF
:1034B000F1FC83463946FFF7EDFC82461AA1FFF77F
:1034C000E9FC81463146FFF7E5FC804617A1FFF78E
:1034D000E1FC142316A218A12046FFF702FE08B94A
:1034E0000020CEE714A104F1080000F0FFF808B1B5
:1034F0000120C6E70020C4E741542B43574A4150FE
:103500005F4355523D00000041542B43574A415000
:103510005F4445463D00000041542B43574A41500B
:103520003D00000022000000222C2200220D0A0093
:103530004552524F520000004F4B00002DE9F04120
:1035400004460D4609A12068FFF7A4FC074629465A
:10355000FFF7B2FC064608A1FFF79CFC052207A175
:10356000204600F0A9F8BDE8F081000041542B434B
:1035700049504D55583D00000D0A00004F4B0000CA
:103580002DE9F04104460D4609A12068FFF782FCB1
:1035900007462946FFF790FC064606A1FFF77AFC8E
:1035A000052205A1204600F087F8BDE8F081000063
:1035B000415445000D0A00004F4B00002DE9F04139
:1035C00004460E461546022D02DD0020BDE8F081BE
:1035D000012D04D115A12068FFF75CFC0AE0022D43
:1035E00004D116A12068FFF755FC03E017A120685D
:1035F000FFF750FC31462068FFF75EFC074616A136
:10360000FFF748FC052315A216A12046FFF769FD28
:1036100008B90020DAE713A104F1080000F066F809
:1036200008B10120D2E70020D0E7000041542B432D
:10363000574D4F44455F4355523D000041542B4385
:10364000574D4F44455F4445463D000041542B4390
:10365000574D4F44453D00000D0A00004552524F62
:10366000520000004F4B00002DE9F84304460D4680
:1036700016461F46DDF820803B4632462946204646
:10368000CDF80080FFF7D1FC10B90020BDE8F88329
:103690000120FBE72DE9F04104460D4616461F4682
:1036A0003B46324629462046FFF71BFD10B9002055
:1036B000BDE8F0810120FBE770B504460D461646D3
:1036C000324629462046FFF761FD08B9002070BD4B
:1036D0000120FCE770B506460C46154634601DB166
:1036E00029462046FFF74EF8304670BD70B50446B7
:1036F0000D4629462046FCF79DFD70BD10B588B0EB
:103700000320102305222D4900902D48FFF718F8BB
:1037100000222B492B48FEF7AAFC00200323CDE909
:10372000043006900790012007211A460023CDE9B6
:103730000032CDE9021003464FF4E132014622483F
:10374000FFF7AEF90446214A2149FCF75CFD002051
:103750000323CDE9043006900790012007211A4683
:103760000023CDE90032CDE902104FF4E13202210D
:103770001848FFF795F90446144A1549FCF743FD2C
:1037800014491548FEF76EF80020C8210122009266
:103790001346CDE90121039010491148FEF748FF77
:1037A0000020C8210090CDE9010101231A460D49EE
:1037B00003900D48FEF73CFF08B010BD000C01401F
:1037C0005C000020100000206800002000000008BD
:1037D000452E0008B402002000050020000400402F
:1037E00054050020000800407C05002000B5024878
:1037F000FDF72AFF00BD00002800002010B5024898
:10380000FEF7A2FB10BD0000A4050020FDF750FB51
:103810000348FEF783F902E00148FEF79FF9FBE752
:10382000A405002010B500290AD00878002807D088
:1038300005487844FDF744F8002801D0002010BD69
:103840000248784410BD0000CE0D0000C60D0000F7
:103850000246B2F80001B2F80231984201D10020CC
:103860007047B2F80031581CC31700EB13631B12EA
:10387000A0EB0323A2F80031B2F80001105C08703D
:103880000120EDE710B50246B2F80231581CC3170B
:1038900000EB13631B12A0EB0323B2F80041A34219
:1038A00001D1002010BDB2F80231581CC31700EB43
:1038B00013631B12A0EB0323A2F802310878B2F8BD
:1038C0000231D0540120EDE770B504460E4615468E
:1038D000204600F044F8A84201DA002070BD002024
:1038E00010E0B4F80021511CCA1701EB1262121249
:1038F000A1EB0222A4F80021B4F80011615C31545C
:10390000411C88B2A842ECDB0120E7E730B5034652
:103910000C46B3F802118818C11700EB11610912A7
:10392000A0EB0121B3F80051A94201D1002030BD24
:10393000002010E0B3F80251691CCD1701EB1565AA
:103940002D12A1EB0525A3F80251215CB3F8025119
:103950005955411C88B29042ECDB0120E7E7014653
:10396000B1F80201B1F80031C21AD01702EB1060B1
:103970000012A2EB002080B270470021A0F80011D5
:10398000A0F802117047000021F00042A2F160523D
:10399000B2F5801F01F0004328BFD2F17F6C0BD934
:1039A0005FEA001C43EAC20242EB507018BF704746
:1039B00028BF20F001007047B2F5801FBCBF184639
:1039C00070474FEA410C1CF5001F02D2084600F078
:1039D000C6BD70B500F066FA00000089FFF7F6BFBB
:1039E0004FF00040A0F580007047000010B591EA4C
:1039F000030F48BF83F0004300F1E682841A71EBA5
:103A0000030C05D2121943EB0C03001B61EB0C01F4
:103A1000DFF824E14FEA1154A4EB135C1EEA430FD4
:103A200018BF9EEA445F73D023EA0E03DCF1200E38
:103A300021EA045143F4801332D322FA0CFE10EB36
:103A40000E0023FA0CFE41EB0E01CCF1200E03FA1E
:103A50000EFE10EB0E0051F10001B1F5801FCCF10C
:103A6000200E32D201EB045112FA0EF2BDE81040E2
:103A700058BF7047401C38BF5FEA420218BF70470A
:103A8000002814BF20F0010041F100014FEA41037A
:103A900013F5001F38BF7047A1F1C04100F050BAC4
:103AA000012A43EB0302ACF1200CDCF11F0E32BF04
:103AB0004FF0000E23FA0CF310EB030041EB04511E
:103AC000B4EB115FD0D0A1EB045101F5801149088E
:103AD0005FEA300001EB04510ED350F1000038BF13
:103AE00012FA0EFE08D1BDE81040C9E7401C38BFED
:103AF0005FEA4202CAD1C3E7BDE810404FEA410382
:103B000013F5001F38BF7047A1F1C04100F018BA8B
:103B10009EEA445F08D011EA5E0FBDE8104004BF82
:103B200001F0004100207047BDE8104070B500F082
:103B3000B9F900BF64FBBE3E0000E0FF491058BF6A
:103B4000C1F140415B1058BFC3F140438B42EFF3DA
:103B5000008070472DE9C04130B4DFF8A0C23CEAD4
:103B6000111418BF3CEA131400F0EC8081EA03053D
:103B70001CEA111444EAD57418BF1CEA131500F0AE
:103B8000C780A4EB05044FF0004545EAC12145EA92
:103B9000C32341EA505143EA525304F17F749942DE
:103BA00004F500344FEAC0204FEAC22208BF904219
:103BB00000F09C804FEA13650FF24016765D4FEAE5
:103BC000134506FB05F7C7F1807706FB07F74FEAB9
:103BD000D737A7FB03687642C8F58038A7FB06CE27
:103BE00038BFA8F1010807FB08E64FF0000EA6FB5E
:103BF000028CE6FB03CEDCF1000CCEF1004E38BFA8
:103C0000AEF1010EA6FB0C584FF000074FF0000577
:103C1000E6FB0E87A1FB08C6A0FB07CE16EB0E063F
:103C200045F10005E1FB076515F1E04E7EBFA4F507
:103C300080345FEA46066D4116F1800745F10005C4
:103C40004FEA17274FEA066647EA0567A6F1DE4600
:103C5000B6F1805F4FEA15251FD9384624F0010CD4
:103C600005EBC471BCF1FE6F01EB0C1102D8F0BC86
:103C7000BDE8008124425CBF01F5801E9EEAC47F3E
:103C800002D4F0BCBDE80081244238D4F0BCA1F1DC
:103C9000C041BDE8004100F053B94FEAD22242EAE8
:103CA00043524FEAD323A7FB02864FEAD02040EAD3
:103CB000415007FB03661EEA0E0F4FEAD12105FBB8
:103CC000026658BFA6EB0056B6EB00564FEA520EFE
:103CD0004EEAC37E18EB0E0E56EB530EBDD518EB15
:103CE00002085E417F1C55F10005B6E74FF48015D0
:103CF0004FF000074FF000064FF00008ADE7F0BCB2
:103D00004FF0000001F1C04101F00041BDE8008129
:103D100011EA0C1F0CEA131500D00CE013EA0C1F7B
:103D200000F025804FF00000F0BC81EA030101F0B3
:103D30000041BDE80081F0BCBDE8004181EA03011B
:103D400000F0FEB8F0BCBDE8004170B500F0AAF884
:103D5000097EFC3E00F007B881EA03014FF0000045
:103D600001F00041704781EA030100F0E9B8F0BCBE
:103D7000BDE800414FF0000021497047FFFDFBF90D
:103D8000F7F5F4F2F0EEEDEBE9E8E6E4E3E1E0DE8E
:103D9000DDDBDAD8D7D5D4D3D1D0CFCDCCCBCAC800
:103DA000C7C6C5C4C2C1C0BFBEBDBCBBBAB9B8B727
:103DB000B6B5B4B3B2B1B0AFAEADACABAAA9A8A81A
:103DC000A7A6A5A4A3A3A2A1A09F9F9E9D9C9C9BE8
:103DD0009A99999897979695959493939291919093
:103DE0008F8F8E8E8D8C8C8B8B8A89898888878724
:103DF0008685858484838382828181800000FF0799
:103E00000000F87FB0FA80F310FA03F10AD0C3F192
:103E10001D0303F580634FEA41504FEA035202EB62
:103E2000D12170474FF000007047000051EA030CA9
:103E300017D41CF5801F58BFBCF5801F00F1068009
:103E4000994218BF704708BF9042704707D711F5D5
:103E5000801F58BF13F5801F19D4994270478942BB
:103E600070471CF5801F08D5BCF5801FF7D58B4225
:103E700018BF704708BF824270474FF4001C1CEB0C
:103E8000410F38BF1CEB430F01D28B42704770B516
:103E900000F008F8922449004FF000514FF0805391
:103EA000FFF74CBE0EF1020E2EF0030E5EF8046B0F
:103EB000364205D4012A43EB030515F5001F12D83D
:103EC000012841EB010C1CF5001F0CD80ED14FEA64
:103ED000D17C15F5001F0CEB4C0C0CF1020C08BF4B
:103EE0004CEBD37C04E04FF0080C01E04FEAD37CAC
:103EF0000CEB4C0526FA05F606F00706B6F1040CA5
:103F000006D20EEB860CBDE870404CF0010C604709
:103F1000DFE80CF0090B02024FF000414FF0000007
:103F2000A1F5002170BD19461046012851EB01048E
:103F300018BFD4F5001484BF002001F0004170BD0B
:103F40000808A0F500114FEA3101704753EA010C4F
:103F500017D41CF5801F58BFBCF5801F00F10680E8
:103F60008B4218BF704708BF8242704707D713F5CE
:103F7000801F58BF11F5801F19D48B4270479B4298
:103F800070471CF5801F08D5BCF5801FF7D59942F6
:103F900018BF704708BF904270474FF4001C1CEBDD
:103FA000430F38BF1CEB410F01D2994270470FB449
:103FB0000CBC03BCFFF76BBF10B591EA030F48BF01
:103FC00083F000433FF51AAD841A71EB030C07D25E
:103FD00012198CF0004C43EB0C03001B61EB0C013D
:103FE000DFF8A4E14FEA1154A4EB135C1EEA430F7F
:103FF00018BF9EEA445F00F0B08023EA6E0352428D
:1040000021EA0451C3EB6E0338BF5B1EDCF1200EC6
:1040100025D322FA0CFE10EB0E0043FA0CFE41EB06
:104020000E01CCF1200E03FA0EFE10EB0E0051F142
:104030000001CCF1200E29D412FA0EF201EB04514A
:10404000BDE8104058BF7047401C1CBFB2F1004F84
:10405000704700280CBF491C20F00100704712EB8C
:10406000020E43EB030218BF4FF0010E4EEA42026C
:10407000ACF1200CDCF11E0E54D943FA0CFE10EB0F
:104080000E0051F1FF31CCF11E0ED5D50EF1010E0F
:1040900012FA0EFE404141EB010101EB445C5FEA84
:1040A0005C5C10D910EBDE7001EB045138BFBEF13F
:1040B000004FBDE8104018BF704700280CBF491CD6
:1040C00020F00100704730D24FEAD42C11F50011D6
:1040D00024F400641BD0B1FA81F20B3AA41AA41E96
:1040E000D2F12003914030FA03F31943904001EBE1
:1040F000CC71002C01EB0451BDE81040A8BF704703
:1041000001F1C0414FF0000001F000417047B0FAEA
:1041100080F310FA03F100D110BDE41A173C4805F2
:10412000C90AE4E701EB045110BD491001EB045149
:10413000BDE810404FEA300002E04FF00001704748
:104140004A0008BF0042F8D0B2F5001F28BF7047F0
:1041500001F000414FF0000070479EEA445F07D035
:1041600011EA5E0FBDE8104004BF00210020704737
:10417000BDE8104070B5FFF795FE00BF40DFF63E8A
:1041800083F00041104670470000E0FF43004FEA13
:10419000D30C4FEA3C0C43401FBF40070CF1605169
:1041A00013F0FE4F70471CF0006F03D100200CF09D
:1041B000004170470CF0004343EA507010B540EAEC
:1041C000CC0000F086F900BF000000924FEA000129
:1041D000FFF7B6BE4FF000414FF00000A1F50021FF
:1041E000704700004FF47F0C1CEAD0121EBF1CEA7F
:1041F000D11392EA0C0F93EA0C0F00F0858090EA3D
:10420000010F48BF42F4807240F4000C41F40000FA
:104210002CF07F4120F07F4000B58142A2EB0302E9
:104220000FF2081CACEB504EC0F100009EF800E00D
:104230004FEA4E0E00FB0EFC38BF49004FEA2C1C23
:1042400002F5FA020CFB0EF34FEACE1E4FEA112CD8
:104250004FEAC1210EEB635E42EB22420EFB0CFCE7
:104260004FEA1C5300FB03114FEA112C4FEA0131B6
:104270000EFB0CFC4FEADC4C00FB0C11C14228BFCA
:1042800009184CEB03335DF804EB10EB410143EBF1
:10429000C250B2F57C0F38BF704729D512F0F00F2D
:1042A0001CBF00F1C04000F00040704700818283D5
:1042B0008485868788898B8C8D8E8F919293959635
:1042C00097999A9C9D9FA0A2A3A5A7A8AAACAEB0BF
:1042D000B2B3B5B7B9BCBEC0C2C5C7C9CCCED1D4C4
:1042E000D7D9DCDFE2E6E9ECF0F3F7FAFE000000F4
:1042F0004FEA400C0CF1807CBCF17E4F28BF704728
:10430000B0F1C04000F02BB990EA010F0CEAD113D4
:1043100048BF42F48072624538BF634507D213F448
:104320007F0F16D080EA010000F00040704710B502
:1043300000F0CFF8097EFC3E00F005B880EA0100ED
:1043400000F00040704780EA010000F0004000F0FB
:1043500006B912F47F0F04BF0248704780EA0100DB
:1043600000F0FDB80000C07FC10DD1F19E0206DB58
:104370004FEA002343F0004323FA02F07047004263
:1043800007D54FEA4001B1F1FE4F02D24FF00000D5
:10439000704710B500F09DF84992248000207047C6
:1043A0006FEA200070470000B0FA80F310FA03F2C1
:1043B000C3F19D030AD0D90501EB1220530638BF83
:1043C000704700F1010008BF20F0010070470000B5
:1043D0004FF47F0C1CEAD0121EBF1CEAD11392EAE4
:1043E0000C0F93EA0C0F00F0478090EA010F48BFD2
:1043F00042F480724FF0004C4CEA00204CEA01215C
:1044000002EB0302A0FB0113A2F50002002918BF72
:1044100043F001035B0028BF4FEA330342EB224223
:104420005FEA132C4CEBC2502EBFBCEB436FB2F5CE
:104430007C0F70474FEA036CBCF1004F08BF20F0BF
:104440000100B2F57C0F38BF70470BD582F0FF0238
:1044500012F5803FC8BF704700F1C040D8BF00F0E0
:104460000040704700F5000C5FEA4C0C48BF7047F5
:10447000B0F1C04000F073B890EA010F0CEAD1131C
:1044800048BF42F48072624538BF634504D280EA77
:10449000010000F00040704710B500F01AF800BFAE
:1044A0008900013E00F007B800F009B85FEA410C4E
:1044B0005FEA1C6C08D080EA010000F050B85FEAA7
:1044C000400C5FEA1C6CF6D14FF00040A0F5800074
:1044D00070470EF1020E2EF0030E5EF8044B2442DC
:1044E00004D44FEA4102B2F17F4F11D84FEA4003A2
:1044F000B3F17F4F0CD80ED14FEAD07CB2F17F4F91
:104500000CEB4C0C0CF1020C08BF4CEBD17C04E022
:104510004FF0080C01E04FEAD17C0CEB4C0324FA7D
:1045200003F404F00704B4F1040C06D20EEB840C7F
:10453000BDE810404CF0010C6047DFE80CF00708C4
:1045400002024FF00040A0F5800010BD0846420076
:1045500018BFD2F1807288BF00F0004010BDFF216B
:1045600041EAD050C0057047010002000400080075
:10457000100020004000800000010002000400083C
:10458000001000200040008001020304050A000022
:1045900000000000000000000000000029180008D2
:1045A000F917000871160008000000000000000064
:1045B000000000006D160008000000000000000070
:1045C00000000000000000000000000000000000EB
:1045D00000000000000000000000000000000000DB
:1045E0001C470008000000205C00000028010008B3
:1045F000784700085C0000205C10000044010008BF
:104600001001000043000000F8FFFFFF00404040A1
:104610004040404040404141414141404040404095
:104620004040404040404040404040404005020241
:104630000202020202020202020202020220202000
:10464000202020202020200202020202020290905C
:10465000909090901010101010101010101010105A
:1046600010101010101010100202020202028888AE
:1046700088888888080808080808080808080808BA
:1046800008080808080808080202020240000000A2
:10469000000000000000000000000000000000001A
:1046A000000000000000000000000000000000000A
:1046B00000000000000000000000000000000000FA
:1046C00000000000000000000000000000000000EA
:1046D00000000000000000000000000000000000DA
:1046E00000000000000000000000000000000000CA
:1046F00000000000000000000000000000000000BA
:1047000000000000000000000000000000000000A9
:10471000EDEFFFFFE9F0FFFFD5F0FFFF0000000025
:104720000000000000000000000000000000000089
:104730000000000000000000000000000100100068
:104740000000000000000000000000000000000069
:104750000000000000000000000000000000000059
:104760000000000000000000010203040102030435
:0847700006070809020406080F
:04000005080000ED02
:00000001FF
