:020000040800F2
:1000000040220020650100084D3100084F310008F2
:1000100053310008573100085B3100080000000030
:100020000000000000000000000000005F31000838
:1000300061310008000000006331000865310008EC
:100040007F0100087F0100087F0100087F01000890
:100050007F0100087F0100087F0100087F01000880
:100060007F0100087F0100087F0100087F01000870
:100070007F0100087F0100087F0100087F01000860
:100080007F0100087F0100087F0100087F01000850
:100090007F0100087F0100087F0100087F01000840
:1000A0007F0100087F0100087F0100087F01000830
:1000B00067310008773100087F0100087F010008E0
:1000C0007F0100087F0100087F0100087F01000810
:1000D0007F01000879310008F33100087F01000832
:1000E0007F0100087F0100087F0100087F010008F0
:1000F0007F0100087F0100087F0100087F010008E0
:100100007F0100087F0100087F0100087F010008CF
:100110007F0100087F0100087F0100087F010008BF
:100120007F0100087F0100087F0100087F010008AF
:10013000DFF80CD006F0BAFA00480047492B000857
:1001400040220020EFF30980704780F30988704750
:10015000EFF30880704780F30888704740BA704713
:10016000C0BA70470648804706480047FEE7FEE7EA
:10017000FEE7FEE7FEE7FEE7FEE7FEE7FEE7FEE757
:1001800067020008310100080CB5002001900090C2
:100190006C48006840F480306A49086000BF6948D4
:1001A000006800F4003000900198401C0190009815
:1001B00018B90198B0F5A06FF1D16248006800F459
:1001C000003010B10120009001E000200090009864
:1001D000012843D15C48006840F010005A4908608B
:1001E0000846006820F0030008600846006840F0F8
:1001F0000200086053484068524948600846406819
:1002000048600846406840F480604860084640689E
:1002100020F47C1048600846406840F4E8104860CC
:100220000846006840F08070086000BF45480068DC
:1002300000F000700028F9D04248406820F0030028
:10024000404948600846406840F00200486000BFEE
:100250003C48406800F00C000828F9D10CBD10B5EE
:10026000FFF792FF10BD10B53648006840F001005E
:1002700034490860084640683449084031494860BC
:1002800008460068324908402E4908600846006860
:1002900020F4802008600846406820F4FE00486092
:1002A0004FF41F008860FFF7DAFF4FF00060294924
:1002B000086010BD10B5002100200022214B5B68B2
:1002C00003F00C0121B1042906D0082928D107E048
:1002D000214B224C236027E01F4B204C236023E05E
:1002E000184B5B6803F47010164B5B6803F48032A4
:1002F000022303EB904022B9194B4343174C236070
:100300000DE0104B5B6803F4003323B1144B4343FF
:10031000124C236003E0104B4343104C236003E076
:100320000D4B0E4C236000BF00BF064B5B68C3F350
:1003300003130C4CE15C094B1B68CB40074C23605A
:1003400010BD000000100240002002400000FFF835
:10035000FFFFF6FE08ED00E000127A00000000202A
:1003600000093D000400002031490143314A116079
:10037000704770B5002100230F22C47804B32D4CC0
:10038000246804F4E064C4F5E064210AC1F10403C4
:10039000CA40447804FA03F18478144021430901E7
:1003A000254C0678A155047804F01F050124AC40C3
:1003B00005786D11AD0005F1E025C5F8004109E0B3
:1003C000047804F01F050124AC401C4D067876111A
:1003D00045F8264070BD1A4A0A400243154B1B1FC0
:1003E0001A60704739B1134A121D12680243114B4B
:1003F0001B1D1A6006E00F4A121D126882430D4B46
:100400001B1D1A607047042808D14FF0E0210969CC
:1004100041F004014FF0E022116107E04FF0E021CC
:10042000096921F004014FF0E022116170470000DA
:100430000000FA050CED00E000E400E080E100E0DF
:1004400080FFFF1F01460020FE4A106800F03800C0
:10045000084310607047FB49096821F00801F94A18
:10046000116011460968014311607047F549096838
:1004700021F01001F34A116011460968014311602F
:100480007047F148EF494860F04848607047EE48CF
:10049000EC494860ED4848607047EA48006940F020
:1004A0008000E84908617047E648006940F0800034
:1004B000E449086170470420E249C96801F001017C
:1004C00009B101200EE0DF49C96801F0040109B15A
:1004D000022007E0DB49C96801F0100109B10320DF
:1004E00000E00420704700B502460423FFF7E3FF55
:1004F000034603E0FFF7DFFF0346521E012B01D145
:10050000002AF7D102B90523184600BD30B50446CC
:1005100004254FF43020FFF7E6FF0546042D17D1E0
:10052000C848006940F00200C649086108464461B5
:10053000006940F0400008614FF43020FFF7D3FF1E
:100540000546C048006941F6FD710840BD49086193
:10055000284630BD10B504244FF43020FFF7C3FF08
:100560000446042C16D1B748006940F00400B54990
:1005700008610846006940F0400008614FF43020EF
:10058000FFF7B1FF0446AF48006941F6FB71084030
:10059000AC490861204610BD00B502460423FFF7B0
:1005A0008AFF034603E0FFF786FF0346521E012B36
:1005B00001D1002AF7D102B90523184600BD10B5B4
:1005C00004244FF43020FFF7E7FF0446042C16D133
:1005D0009C48006940F004009A4908610846006997
:1005E00040F0400008614FF43020FFF7D5FF04468B
:1005F0009448006941F6FB71084092490861204621
:1006000010BD00208F49C96901F0020109B1012024
:1006100000E00020704730B5A5250424FFF7F1FF66
:1006200000B100254FF43020FFF75DFF0446042C95
:100630003AD18548834988608448886008460069C3
:1006400040F0200008610846006940F04000086161
:100650004FF43020FFF747FF0446042C1BD17948A4
:10066000006941F6DF710840764908610846006973
:1006700040F01000086176480580E002FFF733FF84
:100680000446052C10D06F48006941F6EF71084010
:100690006C49086108E0052C06D06A48006941F6FB
:1006A000EF71084067490861204630BD78B50646BD
:1006B0000C46042500200090E802FFF714FF0546D1
:1006C000042D24D15F48006940F001005D490861B4
:1006D0003480E802FFF707FF0546042D10D1B01C57
:1006E0000090200C00990880E802FFF7FCFE054608
:1006F0005448006941F6FE7108405249086106E01D
:100700005048006941F6FE7108404E49086128468C
:1007100078BD70B504460D460426F002FFF7E3FEEF
:100720000646042E11D14748006940F001004549B2
:1007300008612580F002FFF7D6FE064641480069B1
:1007400041F6FE7108403F490861304670BD70B502
:1007500005460E460424E002FFF7C5FE0446042CBD
:1007600017D1394837498860384888600846006999
:1007700040F0100008612E80E002FFF7B4FE04464E
:10078000052C06D02F48006941F6EF7108402D492D
:100790000861204670BD2DE9F04304464FF6FF7610
:1007A0003746B046B1460425E443E6B2C4F3072712
:1007B000C4F307484FEA1469E802FFF794FE0546C0
:1007C000042D49D120481F49886020488860084688
:1007D000006940F010000861FF2E06D01C48083068
:1007E0000680E802FFF77FFE0546042D08D1FF2FA3
:1007F00006D017480A300780E802FFF774FE054666
:10080000042D0AD1B8F1FF0F07D011480C30A0F821
:100810000080E802FFF767FE0546042D0AD1B9F112
:10082000FF0F07D00A480E30A0F80090E802FFF74B
:100830005AFE0546052D0FD00248006941F6EF71BA
:10084000084007E00020024023016745AB89EFCD57
:1008500000F8FF1F664908612846BDE8F08330B5FF
:10086000054604244FF43020FFF73DFE0446042CD7
:1008700041D160485E4988605F48886008460069E9
:1008800040F0200008610846006940F0400008611F
:100890004FF43020FFF727FE0446042C22D15448A1
:1008A000006941F6DF710840514908610846006956
:1008B00040F0100008611DB100205049088002E09E
:1008C000A5204E4908804FF43020FFF70CFE044667
:1008D000052C10D04648006941F6EF7108404449A4
:1008E000086108E0052C06D04148006941F6DF7137
:1008F00008403F490861204630BDF0B505460E4628
:10090000174604243B483A4988603B488860E00227
:10091000FFF7E9FD0446042C19D13548006940F081
:1009200010003349086147F0F80030432843334949
:10093000891C0880E002FFF7D6FD0446052C06D08E
:100940002B48006941F6EF710840294908612046AB
:10095000F0BD2748C069800870472548006A704785
:1009600000202349096801F0200109B1012000E0BD
:100970000020704729B11E4A126902431C4B1A61BC
:1009800004E01B4A12698243194B1A617047014601
:100990000020012908D1164AD26902F001020AB1E9
:1009A000012008E0002006E0114AD2680A400AB19E
:1009B000012000E0002070470D49C8607047042006
:1009C0000B49C96801F0010109B101200EE0084995
:1009D000C96801F0040109B1022007E00449C968AF
:1009E00001F0100109B1032000E00420704700006D
:1009F0000020024023016745AB89EFCD00F8FF1FBF
:100A000010B50446CC48844208D10121042000F0EE
:100A10002DFB0021042000F029FB46E0C74884425A
:100A200008D10121082000F021FB0021082000F05E
:100A30001DFB3AE0C248844208D10121102000F099
:100A400015FB0021102000F011FB2EE0BD48844270
:100A500008D10121202000F009FB0021202000F016
:100A600005FB22E0B848844208D10121402000F073
:100A7000FDFA0021402000F0F9FA16E0B348844264
:100A800008D10121802000F0F1FA0021802000F03F
:100A9000EDFA0AE0AE48844207D10121801500F04A
:100AA000E5FA0021A01500F0E1FA10BD10B5012112
:100AB000084600F0DBFA0021012000F0D7FA10BD53
:100AC0002DE9F041024600250026002000230024E5
:100AD000002791F803C00CF00F0591F803C00CF04B
:100AE000100CBCF1000F03D091F802C04CEA0505D0
:100AF00091F800C0BCF1000F31D0146800202BE049
:100B00004FF0010C0CFA00F3B1F800C00CEA030638
:100B10009E4220D183004FF00F0C0CFA03F7BC4328
:100B200005FA03FC4CEA040491F803C0BCF1280F59
:100B300006D14FF0010C0CFA00FCC2F814C00AE018
:100B400091F803C0BCF1480F05D14FF0010C0CFA2D
:100B500000FCC2F810C0401C0828D1D31460B1F8C2
:100B600000C0BCF1FF0F34DD546800202EE000F11E
:100B7000080C4FF0010808FA0CF3B1F800C00CEAB9
:100B800003069E4221D183004FF00F0C0CFA03F7AD
:100B9000BC4305FA03FC4CEA040491F803C0BCF121
:100BA000280F05D100F1080C08FA0CF8C2F81480DF
:100BB00091F803C0BCF1480F07D100F1080C4FF0C9
:100BC000010808FA0CF8C2F81080401C0828CED39F
:100BD0005460BDE8F0814FF6FF7101800221817001
:100BE0000421C17070470246002093680B400BB18E
:100BF000012000E0002070470146886880B27047FD
:100C000002460020D3680B400BB1012000E0002019
:100C100070470146C86880B2704701617047416102
:100C200070470AB1016100E041617047C1607047DF
:100C30004FF480320A4382618161826182698269F4
:100C4000704702460020434B18684FF680731840E7
:100C500040EA021008433F4B186070473E49C861A4
:100C60007047F0B50A46002300240021002500F05B
:100C70000046B6F1004F02D1364EF16901E0354E23
:100C80007168C0F3034583B200F44016B6F5401F07
:100C900008D121F070612F4E766826F070662D4FD6
:100CA0007E6012E000F48016B6F5801F06D10326A0
:100CB00006FA05F4A14341F0706106E0460D3601E5
:100CC00003FA06F6B14341F0706122B1460D3601D8
:100CD00003FA06F6314300F00046B6F1004F02D1A8
:100CE0001C4EF16101E01B4E7160F0BD30B5002279
:100CF0008B071C0F0F2303FA04F2164B08338C10DA
:100D000053F824309343134C08348D1044F82530A5
:100D100023468C1053F824308C07240F00FA04F477
:100D200023430C4C08348D1044F8253030BD0A495B
:100D3000DC3108607047000000080140000C0140F1
:100D4000001001400014014000180140001C014047
:100D5000002001400000014000002042DF48006800
:100D600040F00100DD49086008464068DC49084061
:100D7000DA49486008460068DA490840D7490860FF
:100D80000846006820F4802008600846406820F487
:100D9000FE0048604FF41F0088607047CF49096823
:100DA00021F48031CD4A11601146096821F4802177
:100DB0001160B0F5803F03D0B0F5802F0ED106E072
:100DC000C649096841F48031C44A116007E0C3494B
:100DD000096841F4A021C14A116000E000BF00BFD2
:100DE000704710B501460022002300204A11012A55
:100DF00002D1BA4C236806E0022A02D1B74C236A1A
:100E000001E0B64C636A01F01F02012494401C40CB
:100E10000CB1012000E0002010BD38B5002000908A
:100E20000024002500BF3120FFF7DBFF05460098B6
:100E3000401C00900098B0F5A06F01D0002DF2D0BA
:100E40003120FFF7CEFF08B1012400E00024204646
:100E500038BD01460020A14A106820F0F80040EAA1
:100E6000C10010607047A04908607047024600202A
:100E70009A4B586820F47C1042EA01031843974BC0
:100E80005860704798490866704701460020934AA9
:100E9000506820F003000843506070478F48406856
:100EA00000F00C007047014600208C4A506820F08A
:100EB000F00008435060704701460020874A5068A0
:100EC00020F4E06008435060704701460020834AE8
:100ED000506820F4605040EAC1005060704729B16A
:100EE0007E4A527A02437D4B5A7204E07B4A527A20
:100EF00082437A4B5A7270477B49D83108607047F9
:100F000001460020754A506820F440400843506074
:100F100070470021714A20321170704A82F8201007
:100F2000012802D004280AD104E001216B4A2032B2
:100F3000117005E00521694A2032117000E000BF00
:100F400000BF70476949086070476449096A0143F6
:100F5000624A11627047654944390860704730B58C
:100F600000210022002400235C4D6D6805F00C0177
:100F700021B1042905D0082923D105E05C4D056085
:100F800022E05B4D05601FE0544D6D6805F4701262
:100F9000524D6D6805F48034022505EB92421CB970
:100FA000544D554305600BE04C4D6D6805F400351C
:100FB0001DB1504D5543056002E04D4D5543056050
:100FC00002E04B4D056000BF00BF444D6D6805F069
:100FD000F0010909484D6B5C0568DD4045603F4DF7
:100FE0006D6805F4E061090A434D6B5C4568DD40BE
:100FF00085603A4D6D6805F46051C90A3E4D6B5CE1
:101000004568DD40C560354D6D6805F44041890B8C
:101010003A4D6B5CC568B5FBF3F5056130BD29B190
:101020002E4A526902432D4B5A6104E02B4A526901
:1010300082432A4B5A61704729B1284A9269024378
:10104000264B9A6104E0254A92698243234B9A61B8
:10105000704729B1214AD2690243204BDA6104E08A
:101060001E4AD26982431D4BDA61704729B11B4A7F
:10107000D2680243194BDA6004E0184AD26882430E
:10108000164BDA60704729B1144A12690243134BB8
:101090001A6104E0114A12698243104B1A617047C9
:1010A00012494039086070470F49C86470470B49BE
:1010B000C87170470948406A40F08070074948622B
:1010C000704701460020054A92680A400AB1012093
:1010D00000E000207047014988727047001002400C
:1010E0000000FFF8FFFFF6FE00004242800442428B
:1010F00000127A0000093D001400002024000020A6
:1011000010B50446BE48844208D101218014FFF77F
:10111000ADFF0021A014FFF7A9FF16E0B9488442F3
:1011200008D101210014FFF7AEFF00212014FFF7C2
:10113000AAFF0AE0B448844207D10121C013FFF797
:10114000A2FF0021E013FFF79EFF10BD10B50022A3
:10115000028802F441520B884C8823438C88234335
:10116000CC8823430C8923434C8923438C89234314
:10117000CC8923431A430280838B4FF2FF742340B0
:1011800083830B8A038210BD2DE9F04F85B005469D
:101190000C464FF0000902274FF000084FF0010BFA
:1011A0000026B246A88B4FF240010840A8830220D7
:1011B0002884B5F81C90A068022801D100BF38E04F
:1011C000A08810B94FF0010B01E04FF0020B8D48E1
:1011D000854200D100E000BF6846FFF7C0FEDDF8A1
:1011E00000A0E088B0F5007F0AD14FEA1A2000EB9A
:1011F00080004000A168B0FBF1F0401D86B20BE01A
:101200004FEA4B10BAFBF0F000EB80004000A16801
:10121000B0FBF1F0401D86B20A20B6FBF0F606F0F6
:101220000108A6EB0800C0F34F074FF6FF7000EA75
:101230000828022F01DBFF2F02DD02274FF00008F4
:10124000E08840EA080038432884A088A189084340
:10125000618808432188084340F4006040EA090996
:10126000A5F81C9005B0BDE8F08F002101804180F9
:101270008180C180018141818181C18107210182F9
:1012800070470021018041808180C18002218160FE
:1012900000218181704721B1028842F04002028022
:1012A00004E002884FF6BF731A400280704721B1F4
:1012B000828B42F48062828304E0828B4FF6FF339C
:1012C0001A408283704730B5002400230C11012599
:1012D000A540ABB21AB185881D43858002E08588A0
:1012E0009D43858030BD1AB183880B43838002E023
:1012F00083888B438380704781817047014688894A
:1013000070474FF6FF62914204D0028842F4807227
:10131000028004E002884FF6FF631A4002807047A3
:1013200021B1828842F00402828004E082884FF674
:10133000FB731A408280704702884FF2FF731A4095
:10134000028002880A4302807047018841F480517C
:101350000180704721B1028842F40052028004E00B
:1013600002884DF6FF731A40028070470246002043
:10137000012901D0108B00E0908A70470146088A4D
:101380007047B1F5804F04D1028842F48042028058
:1013900004E002884BF6FF731A4002807047024651
:1013A000002013890B400BB1012000E000207047A2
:1013B000CA4302817047F0B5024600200024002392
:1013C000002501F00F070126BE40B4B20B11012623
:1013D0009E40B3B2968806EA03051689264016B1E8
:1013E0000DB1012000E00020F0BD10B5002201F099
:1013F0000F040123A3409AB2D343038110BD000020
:101400000030014000380040003C004010B5044668
:10141000FE48844208D10121C014FFF727FE0021B5
:10142000E014FFF723FEC4E0B4F1804F08D101219E
:101430000846FFF728FE00210120FFF724FEB8E050
:10144000F348844208D101210220FFF71CFE00214D
:101450000220FFF718FEACE0EE48844208D10121DB
:101460000420FFF710FE00210420FFF70CFEA0E08F
:10147000E948844208D101210820FFF704FE002139
:101480000820FFF700FE94E0E448844208D10121DF
:101490001020FFF7F8FD00211020FFF7F4FD88E091
:1014A000DF48844208D101212020FFF7ECFD002114
:1014B0002020FFF7E8FD7CE0DA48844208D10121D2
:1014C0004014FFF7D3FD00216014FFF7CFFD70E05B
:1014D000D548844209D10121C804FFF7C7FD002186
:1014E0004FF40020FFF7C2FD63E0D048844209D1E9
:1014F00001210805FFF7BAFD00214FF48010FFF726
:10150000B5FD56E0CA48844209D101214805FFF7DC
:10151000ADFD00214FF40010FFF7A8FD49E0C548DC
:10152000844208D101214020FFF7ADFD0021402079
:10153000FFF7A9FD3DE0C048844208D10121802089
:10154000FFF7A1FD00218020FFF79DFD31E0BB48A2
:10155000844208D101218015FFF795FD0021A015D7
:10156000FFF791FD25E0B648844209D10121080426
:10157000FFF77CFD00214FF48030FFF777FD18E086
:10158000B048844209D101214804FFF76FFD0021D2
:101590004FF40030FFF76AFD0BE0AB48844208D1FE
:1015A00001218804FFF762FD00214FF48020FFF73E
:1015B0005DFD10BD00220288944B98420ED0994BDD
:1015C00098420BD0B0F1804F08D0914B984205D093
:1015D000904B984202D0904B984204D14FF68F73B3
:1015E0001A404B881A438D4B984207D08C4B984237
:1015F00004D04FF6FF431A40CB881A4302808B88F1
:1016000083850B880385814B98420BD0854B98428C
:1016100008D08B4B984205D08A4B984202D08A4B17
:10162000984201D10B7A038601238382704770B5FB
:10163000002400220023058C4FF6FE7635400584F9
:10164000028C8388048B4FF68F752C40B51E2C407E
:101650000D882C43751E2A400D892A434D882A4344
:101660006A4DA8420BD06F4DA84208D0744DA842D5
:1016700005D0744DA84202D0734DA84213D14FF645
:10168000F7752A404D892A434FF6FB752A408D880D
:101690002A434FF6FF652B404FF6FF552B408D89AF
:1016A0002B43CD892B4383800483CD888586028498
:1016B00070BD70B5002400220023058C4FF6EF7634
:1016C00035400584028C8388048B48F6FF752C40D6
:1016D0004FF6FF452C400D884FF6FF7606EA0525AC
:1016E0002C434FF6DF752A400D8906EA05152A437B
:1016F0004D8806EA05152A43444DA84202D0494DBB
:10170000A8421DD14FF67F752A404D894FF6FF76CE
:1017100006EA05152A434FF6BF752A408D8806EA6A
:1017200005152A434FF6FF352B404FF2FF752B402E
:101730008D8906EA85052B43CD8906EA85052B436D
:1017400083800483CD880587028470BD70B5002432
:1017500000220023058C4FF6FF6635400584028C7D
:101760008388848B4FF68F752C404FF6FC752C4088
:101770000D882C434FF6FF552A400D894FF6FF7612
:1017800006EA05252A434D8806EA05252A431F4D0A
:10179000A84202D0234DA8421DD14FF2FF752A4026
:1017A0004D894FF6FF7606EA05252A434FF6FF35A9
:1017B0002A408D8806EA05252A434EF6FF752B4000
:1017C0004DF6FF752B408D8906EA05152B43CD8913
:1017D00006EA05152B4383808483CD8885870284A0
:1017E00070BD70B5002200230024058C4EF6FF76F4
:1017F00035400584038C8488828B48F6FF752A4027
:101800004FF6FF452A400D8820E00000002C0140E3
:101810000004004000080040000C004000100040A0
:101820000014004000340140004C014000500140D1
:101830000054014000180040001C004000200040FF
:101840000040014000440140004801404FF6FF764F
:1018500006EA05252A434DF6FF752B400D8906EA59
:1018600005352B434D8806EA05352B43FA4DA84232
:1018700002D0FA4DA84208D14BF6FF752C408D8955
:101880004FF6FF7606EA85152C4384808283CD8847
:10189000A0F84050038470BD828B4FF2FF331A4092
:1018A0008283828B4FF6FF7303EA01231A438283FC
:1018B0007047F0B50C461546002200210026078C23
:1018C0004EF6FF7C07EA0C070784828B018C4FF6EB
:1018D000FF7707EA043640F6FF473A404FF6FF77B6
:1018E00007EA05273A434FF6FF7707EA03373A43FB
:1018F000D94FB8420ED0D94FB8420BD0B0F1804F7B
:1019000008D0D74FB84205D0D64FB84202D0D64FF4
:10191000B84206D14DF6FF77394046F48057394337
:1019200005E047F6FF57394044F480573943828336
:101930000184F0BD828B4FF6F3731A408283828B51
:101940000A4382837047F0B50C46154600220021F9
:101950000026078C4FF6FF6C07EA0C070784828B82
:10196000018C4FF6FF7707EA04264FF60C773A40D2
:101970004FF6FF7707EA03172F433A43B64FB842B3
:101980000ED0B64FB8420BD0B0F1804F08D0B44F54
:10199000B84205D0B34FB84202D0B34FB84206D1D7
:1019A0004FF6FF57394046F48077394305E04FF250
:1019B000FF57394044F48077394382830184F0BD76
:1019C000028B4FF2FF331A400283028B4FF6FF73F4
:1019D00003EA01231A4302837047F0B50C4615460B
:1019E000002200210026078C4FF6EF7C07EA0C0747
:1019F0000784028B018C4FF6FF7707EA041640F646
:101A0000FF473A404FF6FF7707EA03373A434FF66E
:101A1000FF7707EA05273A438F4FB8420ED08F4F22
:101A2000B8420BD0B0F1804F08D08D4FB84205D0EE
:101A30008C4FB84202D08C4FB84206D14FF6DF77B8
:101A4000394046F01007394305E04FF65F773940DB
:101A500044F01007394302830184F0BD028B4FF636
:101A6000F3731A400283028B0A4302837047F0B576
:101A70000C46154600220021068C4FF6FE773E40AC
:101A80000684028B018C4FF60C7632407E1C06EAEF
:101A900003162E433243704EB0420ED06F4EB0420A
:101AA0000BD0B0F1804F08D06D4EB04205D06D4ED6
:101AB000B04202D06C4EB04206D14FF6FD763140B6
:101AC00044F00106314305E04FF6F576314044F02D
:101AD0000106314302830184F0BD70B505460C4612
:101AE0005D4885420ED05D4885420BD0B5F1804FF0
:101AF00008D05B48854205D05A48854202D05A48F2
:101B0000854200D100E000BF208850B92389A28817
:101B100061882846FFF7ABFFE1882846FFF79EFF64
:101B200025E0208804280AD12389A28861882846D4
:101B3000FFF753FFE1882846FFF742FF17E02088B0
:101B400008280AD12389A28861882846FFF7FBFE6E
:101B5000E1882846FFF7EEFE09E02389A288618824
:101B60002846FFF7A6FEE1882846FFF795FE70BDE0
:101B70002DE9F04105460C4600260127608808B98A
:101B8000022600E00026A088012801D1022700E0FB
:101B900001272088A0B92389A28861882846FFF7F9
:101BA00066FFE1882846FFF759FF23893A46314608
:101BB0002846FFF712FFE1882846FFF701FF13E0F0
:101BC0002389A28861882846FFF707FFE188284615
:101BD000FFF7F6FE23893A4631462846FFF747FFCE
:101BE000E1882846FFF73AFFBDE8F0810A884B8874
:101BF0001A438B881A43CB881A430B891A434B89A3
:101C00001A438B891A43A0F8442070474FF6FF719E
:101C1000818000210180C1804180017270470021D4
:101C2000018041808180C180018141818181C181A8
:101C30007047002101804180012181800021C18005
:101C4000018170470021018041808180C180018134
:101C50004181818170470000002C01400034014027
:101C60000004004000080040000C004021B1028840
:101C700042F00102028004E002884FF6FE731A402F
:101C80000280704731B1B0F8442042F40042A0F81D
:101C9000442005E0B0F84420C2F30E02A0F844202E
:101CA00070471AB183890B43838102E083898B4398
:101CB000838170478182704741EA0203A0F848306F
:101CC00070471AB183890B43838102E083898B4378
:101CD0008381704701894FF6F87211400181704786
:101CE0000A46002101894FF68F7319401143018183
:101CF000704730B504460D4629462046FFF7F0FFF1
:101D0000208940F00700208130BD2DE9F0410446D4
:101D10000D4616461F46602D06D13B460122314630
:101D20002046FFF75AFE05E03B4601223146204699
:101D3000FFF79DFE29462046FFF7D2FF208940F09D
:101D400007002081BDE8F08130B50C4600210189F3
:101D5000C9B24FF6FF7505EA03251543254329430C
:101D6000018130BD2DE9F04105460E4617469846E3
:101D7000002443463A4631462846FFF7E5FF2C89C2
:101D80004FF6F870044044F007044FF68F7004409B
:101D900044F070042C81BDE8F081F0B504460D4696
:101DA00016461F463B46324629462046FFF7CCFFE3
:101DB000208940F480402081F0BD018582827047F7
:101DC0000A46002101884FF68F73194011430180A4
:101DD0007047F0B50C4615461E4600210022002330
:101DE0000189028B038C4FF6F877394021434FF677
:101DF000FC473A4040F201173A434FF6DD773B404B
:101E00004FF6FF7707EA06172F433B430181028312
:101E10000384F0BD0A460021018B4FF68F731940F1
:101E20001143018370470A460021018B48F6FF7376
:101E300019404FF6FF7303EA0223194301837047E9
:101E40000A460021818B4FF68F731940114381831D
:101E500070470A460021818B48F6FF7319404FF600
:101E6000FF7303EA022319438183704721B102887B
:101E700042F08002028004E002884FF67F731A402D
:101E80000280704721B1828842F00402828004E01F
:101E900082884FF6FB731A408280704721B1828896
:101EA00042F00802828004E082884FF6F7731A40FD
:101EB0008280704721B1828842F00102828004E072
:101EC00082884FF6FE731A40828070470A460021CE
:101ED000018B4FF6F77319401143018370470A468F
:101EE0000021018B4FF2FF7319404FF6FF7303EA95
:101EF00002231943018370470A460021818B4FF664
:101F0000F77319401143818370470A460021818B82
:101F10004FF2FF7319404FF6FF7303EA0223194390
:101F2000818370470A460021018B4FF6FB731940ED
:101F30001143018370470A460021018B4FF6FF339E
:101F400019404FF6FF7303EA0223194301837047D8
:101F50000A460021818B4FF6FB73194011438183A0
:101F600070470A460021818B4FF6FF3319404FF628
:101F7000FF7303EA02231943818370470A46002155
:101F8000018B4FF67F7319401143018370470A4656
:101F90000021018BC1F30E014FF6FF7303EA022308
:101FA0001943018370470A460021818B4FF67F73E6
:101FB00019401143818370470A460021818BC1F388
:101FC0000E014FF6FF7303EA022319438183704722
:101FD0000A460021018C4FF6FD731940114301841C
:101FE00070470A460021018C4FF6F77319401143E0
:101FF000018470470A460021018C4FF6DF731940B7
:102000004FF6FF7303EA02131943018470470A462F
:102010000021018C4FF67F7319404FF6FF7303EADE
:1020200002131943018470470A460021018C4FF6C0
:10203000FF5319404FF6FF7303EA0223194301844B
:1020400070470A460021018C4FF2FF7319404FF68A
:10205000FF7303EA02231943018470470A460021F3
:10206000018C4DF6FF7319404FF6FF7303EA0233FC
:1020700019430184704730B5002301248C40A3B27A
:10208000048C9C430484048C02FA01F5ADB22C4309
:10209000048430BD30B5002304248C40A3B2048CEA
:1020A0009C430484048C02FA01F5ADB22C430484F1
:1020B00030BD70B5034600200024184618300125B5
:1020C0008D40ACB21D8CA5431D8409B1082909D1EE
:1020D00000EB6100056825F0700505600568154393
:1020E00005600EE00D1FC5F34E052844056825F474
:1020F000E045056005684FF6FF7606EA022635439F
:10210000056070BD21B1028842F00202028004E045
:1021100002884FF6FD731A400280704721B1028891
:1021200042F00402028004E002884FF6FB731A407A
:102130000280704721B1828842F08002828004E0F0
:1021400082884FF67F731A408280704702884FF66C
:10215000F7731A40028002880A430280704782881F
:102160004FF68F731A40828082880A4382807047BC
:1021700002894FF6F8731A40028102890A430281EC
:10218000704702894FF67F731A40028102890A4321
:1021900002817047818470478185704781867047CE
:1021A0000187704781877047A0F840107047028808
:1021B0004FF6FF431A40028002880A4302807047AC
:1021C0000146888E70470146088F70470146888F08
:1021D00070470146B1F8400070470146888C70474F
:1021E0000146088D704702460020138A0B400BB150
:1021F000012000E000207047CA430282704730B5DA
:102200000246002000230024158A05EA010395896F
:1022100005EA010413B10CB1012000E0002030BD3B
:10222000CA4302827047000010B50446FB4884424E
:1022300009D101218803FEF719FF00214FF48040E6
:10224000FEF714FF32E0F648844209D10121480428
:10225000FEF719FF00214FF40030FEF714FF25E0D0
:10226000F048844209D101218804FEF70CFF0021C7
:102270004FF48020FEF707FF18E0EB48844209D1B5
:102280000121C804FEF7FFFE00214FF40020FEF7F5
:10229000FAFE0BE0E548844208D101210805FEF76B
:1022A000F2FE00214FF48010FEF7EDFE10BD2DE987
:1022B000F04786B005460E460024A24600BFA14660
:1022C0000027B08900B100BF2F462C8A4CF6FF7062
:1022D0000440F08804432C82AC894EF6F31004408D
:1022E000B08831890843718908430443AC81AC8AC2
:1022F0004FF6FF400440B0890443AC8201A8FEF7CA
:102300002EFEC648874202D1DDF810A001E0DDF8BC
:102310000CA0A88900F4004040B10AEBCA0000EB11
:102320000A1031684900B0FBF1F807E00AEBCA0077
:1023300000EB0A1031688900B0FBF1F86420B8FBAB
:10234000F0F004012009642101FB1089A88900F440
:10235000004040B1322000EBC900B0FBF1F000F0CA
:102360000700044308E0322000EB09106421B0FBB1
:10237000F1F000F00F0004432C8106B0BDE8F087B7
:102380004FF41651016000218180C18001810C2130
:10239000418100218181704710B502460020108ADA
:1023A0004FF2FF0318400B884C8823438C8823434B
:1023B000CC8823431843108210BD00210180418046
:1023C0008180C180704721B1828942F400528281AC
:1023D00004E082894DF6FF731A4082817047F0B5A0
:1023E0000346002400260025002040F66A17B94263
:1023F00000D100BF1846C1F3421401F01F060127A7
:1024000007FA06F5012C01D10C3004E0022C01D1B1
:10241000103000E014301AB107682F43076002E063
:102420000768AF430760F0BD1AB1838A0B4383820C
:1024300002E0838A8B4383827047028A4FF6F073EF
:102440001A400282028A0A430282704782894FF24E
:10245000FF731A40828182890A438281704721B1C9
:10246000828942F00202828104E082894FF6FD7384
:102470001A4082817047028A4FF6DF731A40028247
:10248000028A0A430282704721B1028A42F48042E2
:10249000028204E0028A4BF6FF731A400282704700
:1024A000C1F308028280704701468888C0F30800A3
:1024B0007047818941F0010181817047028BD2B25E
:1024C0000283028B42EA012202837047028B02F4EC
:1024D0007F420283028B0A430283704721B1828AC2
:1024E00042F02002828204E0828A4FF6DF731A40B3
:1024F0008282704721B1828A42F01002828204E017
:10250000828A4FF6EF731A408282704721B1828A25
:1025100042F00802828204E0828A4FF6F7731A4082
:102520008282704721B1828942F40042828103E0B5
:102530008289C2F30E028281704721B1828A42F4FD
:102540000062828204E0828A4FF2FF731A40828224
:102550007047828A4FF6FB731A408282828A0A434E
:102560008282704721B1828A42F00202828204E0B4
:10257000828A4FF6FD731A4082827047024600201D
:10258000B1F5007F00D100BF13880B400BB10120D3
:1025900000E00020704701F40072B2F5007F00D126
:1025A00000BFCA430280704770B502460024002372
:1025B0000025002040F66A16B14200D100BFC1F3E9
:1025C000421501F01F03012606FA03F3012D02D183
:1025D0009689334006E0022D02D1168A334001E08D
:1025E000968A33400C12012606FA04F41688344009
:1025F00013B10CB1012000E0002070BD10B5002225
:10260000002340F66A14A14200D100BF0A1201243F
:102610009440A3B2DC43048010BD000000380140A8
:102620000044004000480040004C00400050004082
:1026300008B58020ADF8000003208DF802001420BA
:102640008DF8030069469548FEF73AFA4020ADF848
:10265000000003208DF8020010208DF80300694669
:102660008E48FEF72DFA08BD10B580218B48FEF785
:10267000D4FA40218948FEF7D0FA012000F003FE89
:1026800080218648FEF7CBFA40218448FEF7C7FA3E
:1026900010BD10B580218148FEF7C1FA40217F4866
:1026A000FEF7BBFA012000F0EEFD80217B48FEF72B
:1026B000B4FA10BD70B505462E46002421E0402135
:1026C0007648FEF7ACFA012000F0DDFD06FA04F0D2
:1026D00000F08000802804D180217048FEF79DFA28
:1026E00003E080216D48FEF79AFA012000F0CBFD4F
:1026F00040216A48FEF791FA012000F0C4FD601CF9
:10270000C4B2082CDBDB40216448FEF788FA0120C4
:1027100000F0B9FD80216148FEF77FFA012000F04A
:10272000B2FD70BD70B5002540215C48FEF777FA18
:10273000012000F0A8FD80215848FEF76EFA002421
:102740001BE0012000F09FFD40215448FEF765FA90
:10275000012000F098FD80215048FEF744FA01283E
:1027600001D1012600E0002646EA4500C5B240211D
:102770004A48FEF754FA601CC4B2082CE1DB012081
:1027800000F081FD284670BD10B50024402143486B
:10279000FEF743FA012000F076FD01E0601C84B2F0
:1027A00080213E48FEF71FFA012801D1FF2CF5DBFE
:1027B00040213A48FEF733FA012000F064FD10BDD5
:1027C00070B504460D4672B6FFF74EFFFE2101EAD2
:1027D000E41141F0A000FFF76DFFFFF7D5FF2046A1
:1027E000E11704EB11610912A4EB0121CEB23046CE
:1027F000FFF760FFFFF7C8FF2846FFF75BFFFFF713
:10280000C3FFFFF746FF62B6052000F015FD70BD5F
:1028100070B50446E5B272B6FFF726FFFE2101EA65
:10282000E41141F0A000FFF745FFFFF7ADFF284698
:10283000FFF740FFFFF7A8FFFFF716FFA120FFF704
:1028400039FFFFF7A1FFFFF76DFF0646FFF721FFF6
:1028500062B6304670BD2DE9F04105460E4617467A
:102860009846002407E03A19B15C2A1990B2FFF7A4
:10287000A7FF601C84B24445F5DBBDE8F08170B56C
:1028800004460E46254605E0FF212846FFF798FF3F
:10289000681C85B2A019A842F6DC70BD000C01408E
:1028A00010B501218948FEF7BAF94FF4FA7000F02B
:1028B000EAFC01218548FEF7B0F94FF4C86000F04A
:1028C000BBFC10BD70B5002044682546A84770BD0C
:1028D00070B57F4800687F490840B0F1005F0AD1B9
:1028E0007DA003F093FF7A4845682C4601460868AE
:1028F000FDF731FCA04770BD1FB54FF4E1300090EB
:102900000020ADF80400ADF80600ADF80800ADF801
:102910000C000C20ADF80A00012240F2255171484C
:10292000FFF75DFD69466F48FFF7C1FC01216D4867
:10293000FFF749FD1FBD1CB56B4803F0A1FA6A48BB
:10294000223003F094FA6848263003F080FA664893
:102950001E3003F09EFA6549654803F0E1F94FF433
:10296000FA6003F0C8FA032003F0D2FA01A803F0DA
:10297000B3FA9DF8070000909DF806309DF80520F9
:102980009DF804105BA003F041FF01A803F092FA48
:102990009DF8070000909DF806309DF805209DF8F1
:1029A000041059A003F032FF01A803F07BFA9DF850
:1029B000070000909DF806309DF805209DF8041052
:1029C00056A003F023FF1CBD86B059A103C9CDE971
:1029D000040159A00068039058A00068029058A014
:1029E0000068019057A0006800903F48001F0399BD
:1029F000C0F822100299C0F826100199C0F82A10D8
:102A000004994160BDF8141001810099C0F82E109E
:102A100000203549091F81F83200012081F8330078
:102A200000208886887200212F48001FC172012073
:102A30002D49091F087300212B48001F417306B060
:102A400070472DE9F0410027002500260BE02648BD
:102A5000845D21463846FFF7B3FE781C87B2701CB0
:102A600086B2681C85B2332DF1DBBDE8F08170B50C
:102A70000025002407E02046FFF7CAFE05461A4855
:102A80000555601C84B2332CF5D31748001F00791C
:102A9000FF281AD11448001F4079FF2815D1124889
:102AA000001F8079FF2810D10F48001FC079FF2830
:102AB0000BD10D48001F007AFF2806D10A48001FDD
:102AC000407AFF2801D1FFF77FFF70BD000C014065
:102AD000008000080000FE2F72756E20617070216A
:102AE0000D0A000000380140F400002030000020F2
:102AF000280000204950203A2025642E25642E25E8
:102B0000642E25640D0A0000534E203A2025642EC1
:102B100025642E25642E25640D0A00004757203AAF
:102B20002025642E25642E25642E25640D0A0000C0
:102B30000008DC1111150000C0A8016FFFFFFF00A5
:102B4000C0A801010808080800F0C7F800F04AF81A
:102B500000F001F900F046F9482000F051FBFFF7C2
:102B6000CBFEFFF765FD0FA003F050FEFFF798FEC8
:102B700002F0D4FF14A003F049FEFFF725FF01F097
:102B8000F1FD1749012002F0DAFA4FF4FA6003F080
:102B9000B2F9032003F0BCF903E001F099FF02F061
:102BA00055FBFAE757353530302045564220696EDF
:102BB000697469616C697A6174696F6E206F76659A
:102BC000722E0D0A00000000573535303020696E36
:102BD000697469616C697A6564210D0A00000000FE
:102BE0002A0F002008B51020ADF8000003208DF852
:102BF000020010208DF803006946A548FDF760FF2C
:102C00001021A348FEF709F80320ADF800008DF865
:102C1000020014208DF8030069469E48FDF750FF1E
:102C200001219C48FDF7FBFF02219A48FDF7F7FFC1
:102C30000420ADF8000003208DF8020010208DF86C
:102C4000030069469248FDF73BFF04219048FDF7D9
:102C5000E4FF18208DF803004FF40070ADF8000079
:102C600003208DF8020069468948FDF729FF0420FA
:102C70008DF803000002ADF8000069468448FDF7B6
:102C80001FFFE020ADF8000003208DF8020018209F
:102C90008DF8030069467E48FDF712FF0120ADF86C
:102CA000000003208DF8020010208DF80300694613
:102CB0007848FDF705FF01217648FDF7AEFF0820B3
:102CC000ADF8000003208DF8020048208DF80300C5
:102CD00069466F48FDF7F4FE08BD10B5FEF73EF8F3
:102CE0004FF48030FEF75AF8FEF797F80446012CAF
:102CF00027D11020FDF7BAFB0220FDF7A3FB00202F
:102D0000FEF7D1F80020FEF7E0F8A002FEF7D4F8B5
:102D10004FF4E0112004FEF7A9F80120FEF7B2F805
:102D2000A003FEF7EDF800BF3920FEF75AF800289F
:102D3000FAD00220FEF7A9F800BFFEF7AFF8082886
:102D4000FBD101215448FEF784F9012145F21D20F1
:102D5000FEF772F910BD08B54FF4C060FDF704FB33
:102D60001C208DF8000001208DF8010000208DF856
:102D7000020001208DF803006846FDF7FAFA1C20D6
:102D80008DF8000001208DF8010000208DF8020070
:102D900001208DF803006846FDF7EBFA00208DF85E
:102DA000000001208DF8010000208DF802000120B4
:102DB0008DF803006846FDF7DCFA25208DF8000049
:102DC00001208DF8010000208DF8020001208DF80F
:102DD00003006846FDF7CDFA00214FF00060FDF7D3
:102DE000FAFA08BD0EB54FF47A70ADF80400002071
:102DF000ADF80000ADF80600ADF8020069464FF0EE
:102E00008040FEF7D7FB012247219007FEF7D5FF50
:102E100001218807FEF72AFF012211469007FEF7DD
:102E200040FF0EBD1D480068401C1C490860084654
:102E30000068B0F57A7F0BD300200860184800784E
:102E4000401C1749087017480068401C1549086065
:102E5000134800783C2807DB13480078401C1249CF
:102E6000087000200E4908700F4800783C2807DBE6
:102E700000200D4908700D480078401C0B4908706F
:102E80000A480078182802DB0020084908707047BB
:102E900000080140000C0140014002004C000020ED
:102EA0005000002088000020510000205200002027
:102EB0001CB5044620219A4803F08FF9E0B2C4F310
:102EC0000721220EC4F30743CDE9001095A19448D1
:102ED00003F0ACFC92481CBD1CB50446102194487C
:102EE00003F07BF9E0B2C4F30721220EC4F30743D9
:102EF000CDE900108FA18E4803F078FC8C481CBDF2
:102F000070B58EB005466C462946684603F0A2F9B6
:102F1000002628E08CA1204603F0A6F9044614B947
:102F200000200EB070BD207830280AD16078782853
:102F300007D10DAA1021A01C00F033FA48B90020D7
:102F4000EFE70DAA0A21204600F02BFA08B900206D
:102F5000E7E70D98002802DB0D98FF2801DD00202F
:102F6000DFE70024761C042ED4DB0120D9E7F0B57E
:102F70008FB006460F4601AC314601A803F06AF94E
:102F800000252AE070A1204603F06EF9044614B92A
:102F900000200FB0F0BD207830280AD16078782862
:102FA00007D10EAA1021A01C00F0FBF948B900209F
:102FB000EFE70EAA0A21204600F0F3F908B9002035
:102FC000E7E70E9878550E98002802DB0E98FF2848
:102FD00001DD0020DDE700246D1C042DD2DB012083
:102FE000D7E770B506460024002500BF09E024029B
:102FF00040F6084101EB4611481902F01DFE044459
:103000006D1C042DF3DB204670BD70B5044641F203
:10301000080101EB441002F00FFE05464FF6FF7069
:1030200000EA052541F2080101EB4411481C02F0B9
:1030300003FE284485B2284670BD10B504462046DC
:1030400000F0E0F910BD10B50446204600F0E1F9AB
:1030500010BD10B504462046FFF7EFFF10BD10B5B8
:1030600004462046FFF7EFFF10BDF1B500246D4682
:1030700000BF15E004F5A06002F0DEFD295D00EA66
:10308000010704F5706002F0D7FD064604F5A06064
:1030900002F0D2FD0640B74201D00120F8BD641C09
:1030A000042CE7DB0020F9E770B506460D46032D3A
:1030B00000DD00252C4608E0204602F064FFB04207
:1030C00001D1204670BD601CC4B2082CF4DB08207E
:1030D000F8E7F0B502460D46C5F34F06002400217F
:1030E0000EE012F811304FF6FF7707EA03230127AD
:1030F00007EB4107D75D1F44BBB21C444F1CB9B25C
:10310000B142EEDB05F001071FB112F8113004EBFC
:103110000324A0B200EB1447FF43B8B2F0BD000097
:103120001419002025642E25642E25642E256400A4
:1031300034190020253033642E253033642E253099
:1031400033642E25303364002E000000704700BF2A
:10315000FEE700BFFEE700BFFEE700BFFEE77047E7
:1031600070477047704710B501218807FFF758F87E
:10317000FFF758FE10BD704710B540F225511D48AD
:10318000FFF712FA10B31B48FFF78EF9C4B21A48C2
:10319000008800F40040C8B91748008800F4804057
:1031A00060B10A2C03D000201349088020E01248A7
:1031B000008840F400401049088019E00D2C06D129
:1031C0000D48008840F480400B49088010E00A4810
:1031D0000088C0F30D0009490C5407480088401CC2
:1031E0000549088008460088C72801DD00200880BE
:1031F00010BD7047003801405400002044190020E1
:103200004FF0E021096921F004014FF0E022116143
:10321000C21700EB5272C2F3C702AC4B1A701946C8
:10322000097801EB4102C2EBC1114FF6FF7202EACD
:10323000C101A74A118070470146A54A12884A4336
:103240004FF0E0235A6100229A6101221A6100BF07
:103250004FF0E022106900F001021AB100F4803250
:10326000002AF5D000224FF0E0231A619A617047DE
:1032700010B5044604E04FF47A70FFF7DDFF641EDA
:10328000002CF8D110BD0146904A12784A434FF005
:10329000E0235A6100229A6101221A6100BF4FF0B7
:1032A000E022106900F001021AB100F48032002A15
:1032B000F5D000224FF0E0231A619A61704770B593
:1032C00004460D4600BF80218248FFF757F90028C9
:1032D000F9D0A1B27F48FFF7E3F800BF40217D4855
:1032E000FFF74CF90028F9D0204670BD014630297F
:1032F00005DB392903DCA1F13000C0B27047612938
:1033000005DB662903DCA1F15700C0B2F6E74129CD
:1033100005DB462903DCA1F13700C0B2EEE7084621
:10332000ECE730B502460B46002405E012F8010B2D
:10333000FFF7DCFF04FB030410780028F6D1A0B2ED
:1033400030BD30B502460B46002405E012F8010BF3
:10335000FFF7CCFF04FB030410780028F6D12046C9
:1033600030BD2DE9F04104460D461646701EC7B229
:1033700020223146284602F029FF00BF0A2094FB94
:10338000F0F100FB11403030C2B23846791ECFB2A6
:103390002A540A2094FBF0F080B2041EEEDCBDE853
:1033A000F0812DE9F04104460F46904626460CB1C7
:1033B000207810B90020BDE8F0810BE03078FFF7ED
:1033C00095FF0546002D03DBBD4201DA761C01E0C6
:1033D0000020F0E730780028F0D1B9B22046FFF79E
:1033E000A0FFC8F800000120E5E710B50B4600215A
:1033F00004E0445C9C4200D14254491C445C002CD3
:10340000F7D110BD014600200A06100C40EA112039
:103410007047014600200806C1F3072240EA024037
:10342000C1F3074240EA022040EA116070472DE9EB
:10343000F04781460E4617461D463146484602F083
:10344000D7FE0446304602F0F1FE044439462046D9
:1034500002F0CEFE8246AAEB04001FFA80F8424634
:103460002146284602F0D6FE002005F80800BDE8F7
:10347000F0872DE9F04188B006460F463146684690
:1034800002F0E8FE6C4600251BE013A1204602F086
:10349000EBFE04462078302809D16078782806D1E0
:1034A0001021A01CFFF73DFF00F0FF0805E00A21F6
:1034B0002046FFF736FF00F0FF0807F805800024DC
:1034C0006D1C042DE1DB08B0BDE8F0815600002042
:1034D00058000020003801402E0000000020FE4966
:1034E0000860FE490860FC480068401DFC4908600F
:1034F0000020FC490870704710B586B0FAA000683B
:10350000059000244FF40971F848006802F065FE48
:103510000120F64909680870F449096848700620D6
:10352000F249096888700020F0490968C870F048BD
:103530000068FFF788FDED49096848600020FFF743
:103540007CFDEA49096808814FF40040FFF775FDEA
:10355000E64909684881E74800680078E349096856
:103560000877E44800684178E04800684177E1481E
:1035700000688178DD4800688177DE480068C1789E
:10358000DA480068C177DB4800680179D7480068ED
:1035900080F82010D74800684179D448006880F846
:1035A000211063222146641CD0480068EC3042544C
:1035B00082222146641CCD480068EC3042545322DC
:1035C0002146641CC9480068EC30425463222146FD
:1035D000641CC6480068EC30425435222146641C05
:1035E000C2480068EC30425401222146641CBF48A6
:1035F0000068EC3042542146641CBC480068EC3042
:1036000042543D222146641CB8480068EC304254C4
:1036100007222146641CB5480068EC304254012260
:103620002146641CB1480068EC304254B14800683F
:1036300002782146641CAD480068EC304254AD4825
:10364000006842782146641CA8480068EC30425467
:10365000A848006882782146641CA4480068EC30C1
:103660004254A4480068C2782146641C9F48006800
:10367000EC3042549F48006802792146641C9B4804
:103680000068EC3042549B48006842792046611C37
:103690008CB296490968EC310A540C222046611C10
:1036A0008CB292490968EC310A549248006840791A
:1036B000904909680979CDE900108E480068C378FF
:1036C0008DA28FA102A803F0B1F802A802F0AEFD0E
:1036D000C2B22046611C8CB284490968EC310A549C
:1036E00082490968EC31081902A902F0B3FD02A869
:1036F00002F09CFD204484B237222046611C8CB22B
:103700007A490968EC310A5406222046611C8CB2C1
:1037100076490968EC310A5401222046611C8CB2BA
:1037200072490968EC310A5403222046611C8CB2AC
:103730006E490968EC310A5406222046611C8CB29D
:103740006A490968EC310A540F222046611C8CB288
:1037500066490968EC310A543A222046611C8CB251
:1037600062490968EC310A543B222046611C8CB244
:103770005E490968EC310A54FF222046611C8CB274
:103780005A490968EC310A54432005AB4FF40972D9
:10379000009056480168002002F02FF85DA003F069
:1037A00035F806B010BD10B586B000244FF409718D
:1037B0004E48006802F011FD01204C49096808706C
:1037C0004A490968487006204849096888700020FD
:1037D00046490968C87046480068FFF734FC434909
:1037E000096848600020FFF728FC40490968088103
:1037F0004E480078032807DA4FF40040FFF71DFC1D
:103800003A490968488109E0002038490968488137
:1038100036480068464909680968C160334800684D
:10382000344909680A68C261898801846322204694
:10383000611C8CB22D490968EC310A548222204661
:10384000611C8CB229490968EC310A545322204684
:10385000611C8CB225490968EC310A546322204668
:10386000611C8CB221490968EC310A54352220468A
:10387000611C8CB21D490968EC310A5401222046B2
:10388000611C8CB219490968EC310A5403222046A4
:10389000611C8CB215490968EC310A543D2220465E
:1038A000611C8CB211490968EC310A540722204688
:1038B000611C8CB20D490968EC310A540122204682
:1038C000611C8CB209490968EC310A540948006846
:1038D00002782046611C2DE0880000209000002026
:1038E0008C00002081000020FFFFFFFF9C000020D3
:1038F000980000205C000020573532303000000076
:10390000252E34732D25303258253032582530324B
:103910005800000073656E7420444843505F44496A
:1039200053434F5645520D0A00000000800000200E
:10393000700000208CB2FE490968EC310A54FD4841
:10394000006842782046611C8CB2F9490968EC3164
:103950000A54F848006882782046611C8CB2F44909
:103960000968EC310A54F3480068C2782046611CAB
:103970008CB2EF490968EC310A54EE4800680279CC
:103980002046611C8CB2EA490968EC310A54E948C6
:10399000006842792046611C8CB2E5490968EC3127
:1039A0000A54E548007803286BDA32222046611C6D
:1039B0008CB2DF490968EC310A5404222046611CAC
:1039C0008CB2DB490968EC310A54DC4800680278A3
:1039D0002046611C8CB2D6490968EC310A54D7489C
:1039E000006842782046611C8CB2D1490968EC31EC
:1039F0000A54D248006882782046611C8CB2CC49B7
:103A00000968EC310A54CD480068C2782046611C30
:103A10008CB2C7490968EC310A5436222046611C31
:103A20008CB2C3490968EC310A5404222046611C57
:103A30008CB2BF490968EC310A54C148027820466B
:103A4000611C8CB2BA490968EC310A54BC4842780E
:103A50002046611C8CB2B6490968EC310A54B8485A
:103A600082782046611C8CB2B1490968EC310A5455
:103A7000B348C2782046611C8CB2AD490968EC316C
:103A80000A540C222046611C8CB2A9490968EC3109
:103A90000A54A84800684079A64909680979CDE91F
:103AA0000010A4480068C378AFF2B412AFF2B011AE
:103AB00002A802F0BBFE02A802F0B8FBC2B2204688
:103AC000611C8CB29A490968EC310A54984909681A
:103AD000EC31081902A902F0BDFB02A802F0A6FB16
:103AE000204484B237222046611C8CB29049096878
:103AF000EC310A5408222046611C8CB28C490968BA
:103B0000EC310A5401222146601C84B288480068C6
:103B1000EC30425403222046611C8CB2844909686F
:103B2000EC310A5406222046611C8CB28049096897
:103B3000EC310A540F222046611C8CB27C49096882
:103B4000EC310A543A222046611C8CB2784909684B
:103B5000EC310A543B222046611C8CB2744909683E
:103B6000EC310A541F222046611C8CB2704909684E
:103B7000EC310A5421222146601C84B26C48006852
:103B8000EC304254FF222146601C84B26848006831
:103B9000EC30425468480078032804DA042105A870
:103BA00002F014FB02E0664800680590432005AB74
:103BB0004FF4097200905E480168002001F01DFE7C
:103BC00060A002F023FE06B010BD7CB505460024BF
:103BD0004FF409715648006802F0FFFA0120544979
:103BE00009680870524909684870062050490968F8
:103BF000887000204E490968C87057480068FFF770
:103C000022FA4B49096848600020FFF716FA484934
:103C100009680881002046490968488144480068CD
:103C2000444909680A68C26189880184632221467F
:103C3000641C3F480068EC30425482222146641CD8
:103C40003B480068EC30425453222146641C3848FB
:103C50000068EC30425463222146641C34480068FA
:103C6000EC30425435222146641C31480068EC3067
:103C7000425401222146641C2D480068EC30425415
:103C80000DB9072200E004222046611C8CB22849AD
:103C90000968EC310A543D222046611C8CB224494B
:103CA0000968EC310A5407222046611C8CB2204975
:103CB0000968EC310A5401222046611C8CB21C496F
:103CC0000968EC310A541B48006802782046611CE0
:103CD0008CB217490968EC310A54164800684278DA
:103CE0002046611C8CB212490968EC310A54114813
:103CF000006882782046611C8CB20D490968EC315D
:103D00000A540C480068C2782046611C8CB20849ED
:103D10000968EC310A540748006802792046611CA2
:103D20008CB203490968EC310A540248006815E076
:103D30009C0000205C00002080000020700000201B
:103D40007400002073656E7420444843505F5245F0
:103D500051554553540D0A009800002042792046E1
:103D6000611C8CB2FD490968EC310A5436222046A8
:103D7000611C8CB2F9490968EC310A5404222046CE
:103D8000611C8CB2F5490968EC310A54F448027898
:103D90002046611C8CB2F1490968EC310A54F048A4
:103DA00042782046611C8CB2EC490968EC310A5417
:103DB000EB4882782046611C8CB2E8490968EC31F6
:103DC0000A54E748C2782046611C8CB2E34909686E
:103DD000EC310A54002D3BD032222046611C8CB2BB
:103DE000DE490968EC310A5404222046611C8CB279
:103DF000DA490968EC310A54DA480068027820464A
:103E0000611C8CB2D5490968EC310A54D548006868
:103E100042782046611C8CB2D0490968EC310A54C2
:103E2000D048006882782046611C8CB2CB49096872
:103E3000EC310A54CB480068C2782046611C8CB231
:103E4000C6490968EC310A54C7A002F0DFFC02E061
:103E5000CAA002F0DBFCFF222046611C8CB2BF49E5
:103E60000968EC310A5425B1042101A802F0AEF929
:103E700002E0BB4800680190432001AB4FF4097297
:103E80000090B6480168002001F0B7FC7CBD2DE928
:103E9000FF4707464FF0000901A802AB3A460090E1
:103EA000AE480168002001F02EFD8046AC48C07885
:103EB0000090AB48837842780178B5A002F0A6FC68
:103EC000B948C0780090B848837842780178B7A0A4
:103ED00002F09CFC9DF80B0000909DF80A309DF8C4
:103EE00009209DF80810B7A002F090FC9B480068DC
:103EF0000078022803D1BDF80400432806D0B7A0FB
:103F000002F084FC002004B0BDE8F0870622B94826
:103F10000168924800681C3002F08FF940B9B64839
:103F20000068FFF790F88D490968496888424ED0CB
:103F3000B2A002F06BFCAF4800688378AD4800681F
:103F40004278AC4800680178B8A002F05FFCA9484C
:103F500000684379A74800680279A6480068C178DC
:103F6000BAA002F053FC7D480068837F7B4800685C
:103F7000427F7A480068017FB8A002F047FC77488A
:103F8000006890F821307548006890F82020734848
:103F90000068C17FADA002F039FC7048006841683C
:103FA00095480268B6A002F031FC6C480068C07CFD
:103FB00000906A480068837C68480068427C6748D3
:103FC0000068017CB7A002F021FC00209BE7644858
:103FD000006800281AD0744800680299884215D0F9
:103FE0005F4800680299884210D0B6A002F00EFC2B
:103FF0009DF80B0000909DF80A309DF809209DF86F
:104000000810C0A002F002FC00207CE755480068C0
:104010005249096809690160BFA002F0F7FB5148E5
:104020000068C07800904F48006883784D48006869
:1040300042784C4800680178BCA002F0E7FB0026FB
:1040400046480468F034A8F1F000051943462A46B2
:104050002146BCA002F0DAFB0FE214F8011B332961
:1040600054D007DC71B1012915D003292DD00629C0
:1040700072D144E0352906D0362954D0FF29F7D132
:10408000304640E7F7E114F8019B26783146B5A0A9
:1040900002F0BCFBEFE114F8019BB948006821680D
:1040A0000160B8A002F0B2FBB5480068C07800908B
:1040B000B34800688378B24800684278B048006826
:1040C000017891A002F0A2FBD5E114F8019BB14860
:1040D000006821680160B0A002F098FBAD4800685C
:1040E000C0780090AB4800688378AA48006842789E
:1040F000A8480068017884A002F088FBBBE114F8AE
:10410000019BAA48006821680160B4E114F8019B92
:104110002068FEF7A4FFA649086008460168A5A02C
:1041200002F074FBA7E114F8019B0D48C0780090E1
:104130000B48837842780178A5A002F067FB084815
:10414000006850B1184800680299884205D00448B8
:1041500000680299884249E186E148E19C0000201C
:10416000740000207000002073656E742044484382
:10417000505F4445434C494E450D0A0073656E74CB
:1041800020444843505F52454C454153450D0A0079
:10419000444843505F5349503A25752E25752E25C6
:1041A000752E25750D0A0000780000204448435004
:1041B0005F5249503A25752E25752E25752E257589
:1041C0000D0A00007376725F616464723A25752E81
:1041D00025752E25752E25750D0A0000444843507F
:1041E000203A204E4F2044484350204D53470D0A5B
:1041F000000000005C000020980000204E6F204D61
:10420000792044484350204D6573736167652E20C3
:1042100054686973206D65737361676520697320E5
:1042200069676E6F7265642E0D0A00000953524370
:104230005F4D41435F4144445228253032582E257A
:104240003032582E253032582E000000253032589A
:104250002E253032582E2530325829002C2070520D
:1042600049504D53472D3E63686164647228253080
:1042700032582E253032582E253032582E0000006C
:1042800009705249504D53472D3E786964282530B6
:104290003858292C20444843505F58494428253039
:1042A00038582900097052494D504D53472D3E79D9
:1042B00069616464723A25642E25642E25642E2576
:1042C000640D0A00416E6F74686572204448435063
:1042D0002073657665722073656E64206120726557
:1042E00073706F6E7365206D6573736167652E20E3
:1042F000546869732069732069676E6F7265642EF4
:104300000D0A00000949503A25752E25752E257590
:104310002E25750D0A00000044484350204D534798
:104320002072656365697665640D0A007969616468
:104330006472203A2025752E25752E25752E25753B
:104340000D0A000070203A202530385820206520C2
:104350003A202530385820206C656E203A2025649C
:104360000D0A0000646863704D657373616765547E
:10437000797065203A20253032580D0A000000007F
:10438000600000207375626E65744D61736B203A36
:104390002000000064000020726F75746572734F16
:1043A0006E5375626E6574203A200000680000202C
:1043B00084000020646863704950616464724C65D5
:1043C00061736554696D65203A2025640D0A00000B
:1043D000444843505F534950203A2025752E257597
:1043E0002E25752E25750D0A0000000022D1E74804
:1043F00021680160E64802990160E6A002F006FA31
:10440000E248C0780090E148837842780178AFF2C2
:10441000081002F0FBF9E6A002F0F8F9DC48C078D9
:104420000090DB48837842780178AFF2241002F0E4
:10443000EDF918E0E7A002F0E9F9D448C07800905F
:10444000D248837842780178EBA002F0DFF99DF83A
:104450000B0000909DF80A309DF809209DF8081087
:10446000EAA002F0D3F906E014F8019B4946EDA05A
:1044700002F0CCF900BF00BF4C44AC42FFF4EDADFC
:10448000002040E510B5EB48007803282FDAEA4811
:104490000068EA490968884236D90020E649086080
:1044A00008460068401DE5490860E2480078401C65
:1044B000E0490870E2480078012804D0022808D0BA
:1044C000042812D10BE0DFA002F0A0F9FFF714F8E6
:1044D0000CE0E7A002F09AF9FFF765F906E0EFA01B
:1044E00002F094F9FFF75FF900E000BF0CE0FEF77F
:1044F000F5FF0120F4490870FEF7FEFF0120D049C6
:104500000870F2A002F082F910BD08B5F948006801
:10451000C0780090F74800688378F64800684278D1
:10452000F44800680178F4A002F070F941F2883094
:104530000090F0481122FAA10368002001F05DF913
:1045400038B1FCA002F062F90120FFF73EFB002029
:1045500008BDFCA002F05AF9FE48E649096809685E
:10456000C0F82210FC4909680968C0F82A10FB4904
:1045700009680968C0F826100120E9E7F8B5054682
:104580000024284601F0FFFC48B1284601F042FD16
:10459000061E17DD3046FFF77AFC044612E0A848F5
:1045A000007810B9EEA002F031F900234422022174
:1045B000184600F087FF28B90021F0A002F026F984
:1045C0000120F8BD9E480078052872D2DFE800F08F
:1045D0000311214566000020BB490870FEF77EFFED
:1045E000FEF78AFF0020EE49087001209449087008
:1045F0009AE0022C0AD1FEF771FFFFF7D4F80220EF
:104600008F4908709DA002F001F901E0FFF73AFF21
:104610008AE0052C13D1FEF761FFFFF776FF30B17A
:10462000E0A002F0F3F8032085490870C9E788A0EC
:1046300002F0ECF80120824908700420C1E7062C42
:1046400008D1FEF74BFF01207D49087080A002F0E1
:10465000DDF801E0FFF716FF66E0D9480068401C6E
:10466000D8B175480068D6490968B0EB510F14D924
:104670000024D4489F49096809680160D24800684D
:10468000401CD1490860FFF78EF804206C4908707F
:1046900085A002F0BBF8FEF721FF45E0052C31D1E3
:1046A000042294480168C74801F0C7FD002820D0C3
:1046B00000E035E0C5A002F0A9F8C248C07800903B
:1046C000C048837842780178CDA002F09FF88948ED
:1046D0000068C07800908748006883788548006843
:1046E0004278844800680178CAA002F08FF803205D
:1046F00067E7CEA002F08AF8FEF7F0FE03205049EB
:1047000008700CE0062C08D1FEF7E8FE01204C49A9
:1047100008704FA002F07AF801E0FFF7B3FE03E063
:1047200000204749087000BF00BF67480078012893
:1047300004D1002042490870022042E7002040E7EF
:10474000C44801680068401CC24A1060B1F57A7F15
:1047500007D900201146086037480068401C3649D8
:104760000860704700B589B0BBA103C9CDE9070156
:10477000B9A103C9CDE9050100200490B8489249C8
:10478000086090480021016000486BE1740000203F
:10479000780000204D7920646863705365727665F7
:1047A000724964656E746966696572203A2000001A
:1047B0004D792044484350207365727665722072AB
:1047C00065616C2049502061646472657373203A9E
:1047D00020000000416E6F74686572206468637029
:1047E0005365727665724964656E7469666965724F
:1047F000203A200D0A000000094D592825752E2564
:10480000752E25752E25752920000000416E6F74C8
:104810006865722825752E25752E25752E25752916
:104820000D0A00006F70745F6C656E203A2025756C
:104830000D0A000081000020880000208C0000206C
:10484000800000203C3C74696D656F75743E3E20AD
:104850007374617465203A2053544154455F444851
:1048600043505F444953434F5645520D0A000000E0
:104870003C3C74696D656F75743E3E207374617461
:1048800065203A2053544154455F444843505F5299
:104890004551554553540D0A000000003C3C7469D5
:1048A0006D656F75743E3E207374617465203A20A7
:1048B00053544154455F444843505F52455245511B
:1048C000554553540D0A00008200002074696D653F
:1048D0006F7574203A207374617465203A205354C4
:1048E0004154455F444843505F444953434F564504
:1048F000520D0A00700000203C436865636B207411
:10490000686520495020436F6E666C69637420258A
:10491000642E25642E25642E25643A2000000000B4
:10492000434845434B5F49505F434F4E464C4943D4
:104930005400000020436F6E666C6963743E0D0A7C
:1049400000000000204E6F20436F6E666C69637438
:104950003E0D0A00F00000206400002060000020EE
:104960007374617465203A2053544154455F444840
:1049700043505F52454144590D0A00004661696C3D
:1049800020746F20637265617465207468652044CB
:10499000484350435F534F434B282575290D0A0068
:1049A000940000207374617465203A20535441547C
:1049B000455F444843505F4C45415345440D0A0010
:1049C000840000207C0000209800002054686520AE
:1049D000495020616464726573732066726F6D2044
:1049E0007468652044484350207365727665722070
:1049F000697320757064617465642E0D0A0000008F
:104A00004F4C445F5349503D25752E25752E257515
:104A10002E2575004745545F5349503D25752E2579
:104A2000752E25752E25750D0A00000073746174AE
:104A300065203A2053544154455F444843505F4CED
:104A40004541534544203A2073616D652049500D1E
:104A50000A0000009000002002020202020202028C
:104A60007856341201602A48016001F054F929484F
:104A700001F006FA04A801F0FAF904A801F0E7F938
:104A800004A801F006FA2448006840792249096820
:104A90000979214A1268D278CDE9002102901E4896
:104AA000006883781C48006842781B4800680178D9
:104AB0001AA001F0ABFE05A907A801F031F900200A
:104AC0001F49087000211FA001F0A0FE09B000BD21
:104AD00010B522480078C8B90020FFF74FFD30B16B
:104AE000022805D0032804D004280DD10AE00CE0E8
:104AF0000BE0012019490870FDF71DFF18A001F017
:104B000085FE02E000BFFEE700BF00BF10BD000051
:104B100078000020F40000205C0000206D61633DFF
:104B2000253032783A253032783A253032783A25B5
:104B30003032783A253032783A253032780D0A0012
:104B400080000020696E69745F646863705F636CE5
:104B500069656E743A25750D0A000000400000205A
:104B60006765742069702073756363657373A3A1AF
:104B70000000000070B504460D462A462146FC4858
:104B800001F012FB70BDFB4908607047F9480068EE
:104B90007047F94908807047F74800887047F7491F
:104BA00008807047F5480088704700207047F44936
:104BB00008607047F24800687047F2490860704723
:104BC000F04800687047F04908807047EE48008858
:104BD000704770B50646002341F288320221304604
:104BE00000F070FC0546012D06D0E849E8A001F070
:104BF0000DFE4FF0FF3070BD00BF284601F0C3F935
:104C00000446222CF9D12846F5E72DE9FF4182B070
:104C100005460F461446DDF830800598FEF713FA76
:104C20000590A2B2E8B205AB3946CDF8008000F09D
:104C3000E4FD0646A64204D04FF0FF3006B0BDE8C2
:104C4000F0813046FAE72DE9F84F044688461746CA
:104C50001D46DDF82890E0B201F095F98246BAF1E0
:104C6000220F14D1E0B201F0D5F906467EB1BAB2F6
:104C7000E0B22B464146CDF8009000F044FE0646D7
:104C80002868FEF7ECF928603046BDE8F88F4FF051
:104C9000FF30FAE710B50446E0B200F0F9FB10BDB2
:104CA00000B50020B2490870FFF76DFF0020FFF744
:104CB00070FF0020FFF773FF0020FFF778FF002050
:104CC000FFF781FF0020B7490860B7490860B7497E
:104CD0000860B749087000BDB248006830B10020D4
:104CE000B0490860B0490860B04908607047AD48F5
:104CF000006838B90120AB4908600020AA49086063
:104D0000AA490860704770472DE9F04FADF2F45D95
:104D100080460F461646994602AC0120FEF78DF9F3
:104D20002080A41C4146204601F094FA404601F040
:104D30007DFA401C04443946204601F08BFA38467F
:104D400001F074FA401C0444002518E056F83510B0
:104D5000204601F07FFA56F8350001F067FA401C52
:104D6000044406EBC5004168204601F073FA06EBE7
:104D7000C501486801F05AFA401C04446D1C4D45B9
:104D8000E4D302A8A4EB000AFFF700FF8346452006
:104D90005B46524602A9009086480068FFF735FF3F
:104DA0000120FFF704FF404601F040FA00F1010B3B
:104DB00059464046FFF7DEFEFFF799FF3A46414667
:104DC0007DA001F023FD0DF2F45DBDE8F08F2DE92B
:104DD000FC41054601AC0420FEF72FF92080A41CFD
:104DE0002846FEF72AF92080A41CFFF7D5FE0646C8
:104DF000FFF7CCFE07463B46042201A96D4800960A
:104E00000068FFF702FFFFF772FFBDE8FC81704703
:104E100070472DE9F04105460E469046B8F1010F66
:104E200003D16F480068FBF771FB6E48006830449F
:104E30006C490860FBF725FB3520FBF7BDFDB6F597
:104E4000007F23D2C6F50071A819FF2201F0BEF938
:104E5000002411E0295D601C285C01EB002087B272
:104E600039465F480068FBF754FC5D480068801CC9
:104E70005B490860A01C84B2B4F5007FEADB5A48A5
:104E80005749086000205749086015E0002411E0E8
:104E9000601C285C0702285D384487B239465048B8
:104EA0000068FBF736FC4E480068801C4C490860DF
:104EB000A01C84B2B442EBD3FBF7EFFABDE8F0815B
:104EC00070B505460E462C462088FEF7C2F82080B5
:104ED0006088FEF7BEF86080FFF76CFE012804D002
:104EE000032817D0052832D100E000BF60880128D0
:104EF0000CD10320FFF75BFE6088FFF764FE628839
:104F0000311F201DFFF785FFFFF7E6FE6088FFF7E2
:104F10005EFF1DE0FFF75AFE401C6188884209D100
:104F20006088FFF750FE6288311F201DFFF771FF78
:104F3000FFF7D2FE6088FFF74AFF301FB0F5007F11
:104F400004D2FFF7ADFE02201949087000E000BF4F
:104F500000BF70BD70B504460D4624A001F056FC9C
:104F6000FFF728FE02284BD004284BD149E000006F
:104F70000C1E0020A4000020A8000020AA00002091
:104F8000AC000020B4000020B000002072750008C2
:104F90005B25735D20736F636B6574206572726F40
:104FA000720D0A00B8000020BC000020C0000020E4
:104FB000D2000020A00000203E3E20544654502045
:104FC000525251203A2046696C654E616D65282524
:104FD00073292C204D6F6465282573290D0A000064
:104FE000D4000020D8000020008000083C3C205461
:104FF0004654505F41434B203A200D0A0000000008
:1050000001E000E000BF00BF70BD70B504460D4672
:10501000BFA001F0FBFBFFF7CDFD012802D0022865
:1050200017D10CE029462046FFF76DFE0520FFF75B
:10503000BEFDFFF751FE0020FFF7C9FE0AE029463A
:105040002046FFF760FE0420FFF7B1FDFFF744FEA6
:1050500000E000BF00BF70BD70B504460E46254697
:105060002888FDF7F6FF28806888FDF7F2FF688042
:1050700069882A1DABA001F0C9FB6A882B1DB049C5
:10508000B0A001F0C3FBFFF70BFE0120B44908708C
:1050900070BD2DE9F0470746884614461D46FFF7C8
:1050A00075FDA0420DD0AF49AFA001F0AFFBFFF7F7
:1050B0006DFD81464A462146B1A001F0A7FBBDE83F
:1050C000F0873888FDF7C5FF86B2FFF773FD022829
:1050D00003D0FFF76FFD012807D12846FFF759FDE0
:1050E0002A46A049AFA001F091FB072E23D2DFE8AA
:1050F00006F02204090E131D180041463846FFF73A
:1051000086FE19E041463846FFF782FE14E041462C
:105110003846FFF7D5FE0FE041463846FFF71AFF45
:105120000AE041463846FFF770FF05E04146384641
:10513000FFF792FF00E000BF00BF00BFBFE770B500
:1051400005460C46FFF7ACFD2846FFF742FD9C499B
:1051500008609C48046070BD10B5FFF7A1FD984839
:105160000068FFF797FD4FF0FF3095490860002079
:105170009449086010BD3EB59348006888B39348D1
:1051800000689349096888422BD3FFF713FD06286E
:1051900014D2DFE800F01304030C120B0FE001231C
:1051A0008C4A8DA18E48FFF7AFFD08E000BFFFF7E6
:1051B0000DFD0546FFF70BFE01E000E000BF00BF5C
:1051C00000208249086087480068401C85490860C3
:1051D00008460068052804D3FFF762FD01206049F6
:1051E000087002A801AB40F2EA52009075480168CD
:1051F00073480068FFF727FD84B2BDF808302146E8
:105200007048019A0068FFF744FF554800783EBD9A
:1052100070B504460D462046FFF7B5FC224672499C
:1052200072A001F0F3FA00204D4908700123694A89
:1052300069A12846FFF768FD70BD6348006820B18A
:1052400062480068401C61490860704770B56E484C
:10525000007B6D49897A884204D16B48417BC07AD2
:1052600081424ED06948008800F40040A8B16748E8
:105270000578674967A001F0C9FA2A46644962487F
:105280000E3000F091FF002060490880691C6048E2
:1052900000F0A3FF012068490870674800780128E2
:1052A00034D100206449087064A001F0AFFA674867
:1052B000007800066549497840EA014063498978E9
:1052C00040EA01206149C9780843614908604E49B4
:1052D0000E315F480068FFF79BFF04E0FFF74BFFCC
:1052E000C4B204B100E0F9E700BF022C0ED159A00E
:1052F00001F08CFA4FF47A70FDF79EFFFDF7E8FAA3
:1053000004E058A001F082FAFDF7E2FA70BD000057
:105310003C3C20544654505F4F41434B203A200DB3
:105320000A0000003C3C20544654505F4552524F06
:1053300052203A20256420282573290D0A000000F8
:10534000837500085B25735D204572726F72204380
:105350006F6465203A20256420282573290D0A00F2
:10536000D2000020937500085B25735D20536572A1
:10537000766572204950206661756C74730D0A0061
:1053800066726F6D204950203A20253038782C20E5
:10539000536572766572204950203A20253038785E
:1053A0000D0A00005B25735D205365742053657200
:1053B00076657220506F7274203A2025640D0A00C1
:1053C000A0000020C4000020B8000020BC00002085
:1053D000B4000020C80000206F63746574000000F2
:1053E0000C1E0020C0000020A47500085B25735D22
:1053F000205365742054667470205365727665720C
:10540000203A2025780D0A00F000002054000020EA
:10541000441900200D0A73656E64206E657720764E
:10542000657273696F6E2066696C656E616D653A51
:105430002025730D0A000000480000202054465427
:10544000502053544152540D0A00000038000020EF
:10545000440000205446545020535543434545448E
:105460000D0A0000206E6577657273696F6E2064A7
:105470006F206E6F742066696E642C207374617285
:1054800074206F6C6476657273696F6E0D0A00002C
:1054900010B504464FF4847101EB4410102100F064
:1054A000B2FB00BF4FF4847101EB441000F0C4FB69
:1054B0000028F7D14FF4027101EB4410FF2100F0F6
:1054C000A2FB10BD2DE9F04104460D461646984654
:1054D00005F00F0001280FD005F00F0002280BD0B7
:1054E00005F00F00032807D005F00F00042803D0B3
:1054F00005F00F00052841D12046FFF7C9FF45EA16
:105500000801082202EB441000F07DFB76B1310A5D
:105510004FF4816202EB441000F075FBF1B24FF4DE
:10552000A16202EB441000F06EFB15E0FE4800881B
:10553000401CFD4908800A461288110A4FF4816216
:1055400002EB441000F05FFBF74A11784FF4A162C0
:1055500002EB441000F057FB4FF4847101EB441050
:10556000012100F050FB00BF4FF4847101EB4410A7
:1055700000F062FB0028F7D1012700E00027384641
:10558000BDE8F08170B504464FF4427101EB441060
:1055900000F052FB132811D14FF4847101EB441039
:1055A000022100F030FB00BF4FF4847101EB441086
:1055B00000F042FB0028F7D1012500E00025284635
:1055C00070BD2DE9F04105460C4616462078FF28AF
:1055D00008D16078FF2805D1A078FF2802D1E078B3
:1055E000FF2808D0207828B9607818B9A07808B9C1
:1055F000E07800B10EB900275CE00127217840F681
:10560000084202EB451000F0FEFA617840F60852BD
:1056100002EB451000F0F7FAA17840F6086202EBC1
:10562000451000F0F0FAE17840F6087202EB451000
:1056300000F0E9FA310A41F2080202EB451000F0ED
:10564000E2FAF1B241F2081202EB451000F0DBFA87
:105650004FF4847101EB4510042100F0D4FA00BF2F
:105660004FF4847101EB451000F0E6FA0028F7D101
:1056700017E04FF4427101EB451000F0DDFA1728F6
:1056800000D116E0284600F075FC00F0080040B19B
:105690004FF4027101EB4510082100F0B4FA002725
:1056A00007E04FF4427101EB451000F0C5FA1528F0
:1056B000DFD100BF3846BDE8F08110B504464FF495
:1056C000847101EB4410082100F09DFA00BF4FF4F3
:1056D000847101EB441000F0AFFA0028F7D110BD3F
:1056E0002DE9F04704468846164600250027A946BE
:1056F000204600F073FAB04204DA204600F06EFA59
:10570000074600E0374600BF204600F045FC8146D2
:105710004FF4427101EB441000F08EFA0546172D4C
:1057200003D01C2D01D0002701E0B945ECDB00BF00
:105730003A464146204600F097FC4FF4847101EB55
:105740004410202100F05FFA00BF4FF4847101EB98
:10575000441000F071FA0028F7D113E04FF44271C1
:1057600001EB441000F068FA0546172D0AD01C2DF5
:1057700008D06EA001F04AF82046FFF789FE00200D
:10578000BDE8F0874FF4027101EB441000F054FAC9
:1057900000F010001028E1D14FF4027101EB441029
:1057A000102100F030FA4FF4027101EB4410102187
:1057B00000F029FA3846E3E72DE9F04104460E46A9
:1057C00015460027002D15DD2A463146204600F0FB
:1057D00085FC4FF4847101EB4410402100F013FA72
:1057E00000BF4FF4847101EB441000F025FA00284B
:1057F000F7D12F463846BDE8F0812DE9F047044641
:10580000894616461D46089F4FF00008204600F0C6
:10581000E5F9B04204DA204600F0E0F9804600E005
:10582000B046287828B9687818B9A87808B9E8780F
:1058300000B117B94FF0000863E0297840F608423C
:1058400002EB441000F0DFF9697840F6085202EBF1
:10585000441000F0D8F9A97840F6086202EB441031
:1058600000F0D1F9E97840F6087202EB441000F03C
:10587000CAF9390A41F2080202EB441000F0C3F9F8
:10588000F9B241F2081202EB441000F0BCF94246B2
:105890004946204600F0E8FB4FF4847101EB4410C8
:1058A000202100F0B0F900BF4FF4847101EB4410E7
:1058B00000F0C2F90028F7D112E04FF4027101EBB9
:1058C000441000F0B9F900F0080048B14FF402713B
:1058D00001EB4410182100F096F90020BDE8F08794
:1058E0004FF4027101EB441000F0A6F900F0100033
:1058F0001028E2D14FF4027101EB4410102100F0A6
:1059000082F94046EAE72DE9FC5F05468A46914662
:105910001E46DDF8308000270024A346B9F1000FB1
:1059200071DD42F608010BE0DC00002053454E44D7
:105930005F4F4B2050726F626C656D21210D0A0024
:1059400001EB451000F078F9044642F6081101EB2E
:10595000451000F071F900EB042084B2200200EB46
:10596000451000F1180B082101EB451000F064F917
:1059700000F00700022804D0032845D0042878D17D
:1059800078E008226946584600F097F904F10800CB
:1059900084B29DF8000030709DF8010070709DF891
:1059A0000200B0709DF80300F0709DF80400A8F8A4
:1059B00000009DF8050098F8001000EB0120A8F801
:1059C00000009DF806709DF8070000EB072087B2E5
:1059D000200200EB451000F1180B3A46514658469C
:1059E00000F06BF9E01984B2210A42F6080202EBDA
:1059F000451000F008F9E1B242F6081202EB45103A
:105A000000F001F96AE07AE006226946584600F0A3
:105A100054F9A01D84B29DF8000030709DF801007B
:105A200070709DF80200B0709DF80300F0709DF852
:105A300004709DF8050000EB072087B2200200EB00
:105A4000451000F1180B3A465146584600F035F91A
:105A5000E01984B2210A42F6080202EB451000F078
:105A6000D2F8E1B242F6081202EB451000F0CBF892
:105A700034E032E002226946584600F01EF9A01CCC
:105A800084B29DF800709DF8010000EB0720801E95
:105A900087B240F2EA50874204DD1AA000F0B6FE59
:105AA00000BFFEE7200200EB451000F1180B3A465C
:105AB0005146584600F001F9E01984B2210A42F635
:105AC000080202EB451000F09EF8E1B242F608121F
:105AD00002EB451000F097F800E000BF00BF4FF464
