:020000040800F2
:10000000003C00209D010008A5010008950600089D
:10001000A9010008AB010008AD01000800000000C4
:10002000000000000000000000000000AF01000818
:10003000B101000800000000B3010008B50100088C
:10004000B7010008B7010008B7010008B7010008B0
:10005000B7010008B7010008B7010008B7010008A0
:10006000B7010008B7010008B7010008B701000890
:10007000B7010008B7010008B7010008B701000880
:10008000B7010008B7010008B7010008B701000870
:10009000B7010008B7010008B7010008B701000860
:1000A000B7010008B7010008B7010008B701000850
:1000B000B7010008B7010008B7010008B701000840
:1000C000B7010008B7010008B7010008B701000830
:1000D000B7010008050C0008B7010008B7010008C7
:1000E000B7010008B7010008B701000800F002F8E6
:1000F00000F03FF80AA090E8000C82448344AAF183
:100100000107DA4501D100F034F8AFF2090EBAE880
:100110000F0013F0010F18BFFB1A43F0010318473B
:10012000B4100000D4100000103A24BF78C878C181
:10013000FAD8520724BF30C830C144BF04680C60ED
:10014000704700000023002400250026103A28BF35
:1001500078C1FBD8520728BF30C148BF0B60704739
:10016000642900F07D80002070471FB51FBD10B5C9
:1001700010BD00F03DF91146FFF7F7FF00F0C2FE99
:1001800000F05BF903B4FFF7F2FF03BC00F016FECA
:100190007047000080F308887047000009488047D6
:1001A00009480047FEE7FEE7FEE7FEE7FEE7FEE759
:1001B000FEE7FEE7FEE7FEE704480549054A064B71
:1001C00070470000A50B0008ED000008A80C0020F7
:1001D000003C0020A80E00200038002070470000DE
:1001E0000FB4044910B503AA029800F0D3F810BC6C
:1001F0005DF814FB0C0000202DE9F0410E4604468A
:10020000002020622046E168884730B3252805D0C9
:10021000D4E901219047206A401CF2E7E1682046BA
:1002200000278847050018D0A5F14100192802D8F9
:1002300020354FF400673246294620462760FFF7F5
:100240008FFF40B1012804D0F61D26F007060836BE
:10025000D8E7361DD6E72846DAE7206ABDE8F08100
:100260002DE9F0410646002410687529314616A58F
:1002700010D0AFF30080002802DA404213A507E057
:1002800031688A0701D512A502E0490704D511A5F6
:10029000012401E0AFF3008000210A2206F12407C7
:1002A00009E0B0FBF2FCB0FBF2F302FB1C003030C3
:1002B00078541846491C0028F3D123462A46304674
:1002C000BDE8F04100F00CB8000000002D00000077
:1002D0002B000000200000007047704770477047F7
:1002E0002DE9F0470D4699469246044600F1240850
:1002F0000168880604D5E06921F01001216000E062
:100300000120A84201DD471B00E00027A1697A19FE
:1003100002EB0900081AA0612078C00602D420462A
:10032000AFF30080002608E0D4E901211AF80600A6
:100330009047206A401C761C20624E45F4DB2078F2
:10034000C0060AD52046AFF3008006E0D4E90121BB
:1003500030209047206A401C2062381EA7F1010718
:10036000F4DC07E0D4E9012118F805009047206A81
:10037000401C2062281EA5F10105F3DC2046AFF3E6
:1003800000802078000602D50220BDE8F087012019
:10039000FBE70000074B70B50D467B4400F011F8F9
:1003A0000446284600F020F810B14FF0FF3070BD31
:1003B000204670BDB70A000001694A1C0261087836
:1003C000704700B58FB0CDE9013100210591054995
:1003D0007944CDE9031011466846FFF70DFF0FB0D1
:1003E00000BD0000E5FFFFFF007B00F080007047CC
:1003F000754600F02BF8AE4605006946534620F0DE
:100400000700854618B020B5FFF7D6FEBDE82040AE
:100410004FF000064FF000074FF000084FF0000BC0
:1004200021F00701AC46ACE8C009ACE8C009ACE873
:10043000C009ACE8C0098D46704710B50446AFF35B
:1004400000802046BDE81040FFF79CBE0048704782
:10045000440C002030B5044604254FF4302000F051
:100460006FF80546042D17D10C48006940F00200D2
:100470000A49086108464461006940F0400008618B
:100480004FF4302000F05CF805460448006941F65E
:10049000FD71084001490861284630BD0020024036
:1004A00004200B49C96801F0010109B101200EE0E7
:1004B0000749C96801F0040109B1022007E00449B5
:1004C000C96801F0100109B1032000E00420704761
:1004D000002002400348006940F0800001490861A3
:1004E000704700000020024070B504460D46042607
:1004F000F00200F025F80646042E11D109480069E3
:1005000040F00100074908612580F00200F018F86A
:1005100006460448006941F6FE7108400149086139
:10052000304670BD0020024002480349486003483D
:10053000486070472301674500200240AB89EFCD3A
:1005400000B502460423FFF7ABFF034603E0FFF7C5
:10055000A7FF0346521E012B01D1002AF7D102B991
:100560000523184600BD2DE9F0410246002500266E
:10057000002000230024002791F803C00CF00F0591
:1005800091F803C00CF0100CBCF1000F03D091F8EF
:1005900002C04CEA050591F800C0BCF1000F31D053
:1005A000146800202BE04FF0010C0CFA00F3B1F8B6
:1005B00000C00CEA03069E4220D183004FF00F0CCE
:1005C0000CFA03F7BC4305FA03FC4CEA040491F867
:1005D00003C0BCF1280F06D14FF0010C0CFA00FC4F
:1005E000C2F814C00AE091F803C0BCF1480F05D16D
:1005F0004FF0010C0CFA00FCC2F810C0401C082897
:10060000D1D31460B1F800C0BCF1FF0F34DD5468E1
:1006100000202EE000F1080C4FF0010808FA0CF35E
:10062000B1F800C00CEA03069E4221D183004FF0CE
:100630000F0C0CFA03F7BC4305FA03FC4CEA040464
:1006400091F803C0BCF1280F05D100F1080C08FA9D
:100650000CF8C2F8148091F803C0BCF1480F07D120
:1006600000F1080C4FF0010808FA0CF8C2F81080ED
:10067000401C0828CED35460BDE8F081024600201B
:1006800093680B400BB1012000E00020704701612E
:100690007047000010B503A0FFF7A2FDFFF778FD3B
:1006A00010BD0000486172644661756C745F4861FA
:1006B0006E646C657228290D0A00000008B50121DE
:1006C000042000F0D1F81C20ADF8000048208DF87F
:1006D000030069460648FFF746FF0120ADF8000019
:1006E00028208DF8030069460148FFF73CFF08BD4C
:1006F0000008014010B5044614B101202C490870CF
:100700002B480078002837D010212A48FFF7B6FF81
:1007100078B108212748FFF7B1FF50B104212548DF
:10072000FFF7ACFF28B101212248FFF7A7FF0128FE
:1007300022D10A2000F068FB00201D49087010211A
:100740001C48FFF79BFF08B9012010BD082119487C
:10075000FFF794FF08B90220F7E704211548FFF7D7
:100760008DFF08B90320F0E701211248FFF786FF4B
:1007700001281BD10420E8E710210E48FFF77EFF77
:10078000012813D108210B48FFF778FF01280DD16C
:1007900004210848FFF772FF012807D1012105480D
:1007A000FFF76CFF10B90120014908700020CCE769
:1007B000080000200008014008B50121082000F0D1
:1007C00053F82020ADF8000010208DF8030003201E
:1007D0008DF8020069460248FFF7C5FE08BD00001B
:1007E000000C014070B5002100230F22C47804B32F
:1007F000154C246804F4E064C4F5E064210AC1F1F6
:100800000403CA40447804FA03F184781440214375
:1008100009010E4C0678A155047804F01F05012447
:10082000AC4005786D11AD0005F1E025C5F800413B
:1008300009E0047804F01F050124AC40044D06785B
:10084000761145F8264070BD0CED00E000E400E0B4
:1008500080E100E002490143024A11607047000054
:100860000000FA050CED00E029B1064A9269024346
:10087000044B9A6104E0034A92698243014B9A61F6
:10088000704700000010024030B500210022002413
:1008900000232D4D6D6805F00C0121B1042905D010
:1008A000082923D105E0294D056022E0274D056088
:1008B0001FE0254D6D6805F47012234D6D6805F439
:1008C0008034022505EB92421CB9214D5543056049
:1008D0000BE01D4D6D6805F400351DB11C4D5543F1
:1008E000056002E0194D5543056002E0174D0560B3
:1008F00000BF00BF144D6D6805F0F0010909154DEA
:100900006B5C0568DD4045600F4D6D6805F4E06186
:10091000090A104D6B5C4568DD4085600A4D6D68C5
:1009200005F46051C90A0B4D6B5C4568DD40C5603C
:10093000054D6D6805F44041890B074D6B5CC5683A
:10094000B5FBF3F5056130BD0010024000127A00DE
:1009500000093D001C0000202C00002030B503469B
:100960000C461546002207E0184600F008F824F867
:1009700012009B1C501C82B2AA42F5DB30BD01461E
:10098000088870472DE9F05F80468A461746B8F11F
:10099000006F02D33348804501D3BDE8F09FFFF7D5
:1009A000C3FDA8F1006B4FEA9B25CBF34809C9F5BD
:1009B0000074A74200DC3C464EE04FF0006101EBC2
:1009C00085208A142849FFF7C9FF00260BE009EBB0
:1009D0000600254931F810004FF6FF71884200D01B
:1009E00003E0701C86B2A642F1DB00BFA6421BDA10
:1009F0004FF0006101EB8520FFF72CFD002608E099
:100A00003AF8160006EB0901174A22F81100701C8B
:100A100086B2A642F4DB4FF0006101EB85208A1418
:100A2000114900F023F804E022465146404600F008
:100A30001DF8A74200D110E06D1C4FF000090AEB31
:100A4000440A08EB4408381B87B2B7F5007F02DD83
:100A50004FF4007400E03C46AFE700BFFFF73AFDFB
:100A600000BF9AE700000108440800202DE9F0418A
:100A700005460E461746002407E036F814102846AF
:100A8000FFF732FDAD1C601C84B2BC42F5DBBDE853
:100A9000F08110B500F002F810BD00000CB5002088
:100AA000019000903348006840F48030314908607C
:100AB00000BF3048006800F4003000900198401CEE
:100AC0000190009818B90198B0F5A06FF1D12948AC
:100AD000006800F4003010B10120009001E0002017
:100AE00000900098012843D12348006840F010008E
:100AF000214908600846006820F0030008600846A5
:100B0000006840F0020008601A48406819494860CF
:100B10000846406848600846406840F48060486085
:100B20000846406820F47C1048600846406840F45D
:100B3000E81048600846006840F08070086000BF18
:100B40000C48006800F000700028F9D0094840689F
:100B500020F00300074948600846406840F0020062
:100B6000486000BF0348406800F00C000828F9D135
:100B70000CBD00000010024000200240042808D1F3
:100B80004FF0E021096941F004014FF0E0221161CA
:100B900007E04FF0E021096921F004014FF0E02265
:100BA0001161704710B51348006840F00100114909
:100BB000086008464068104908400E4948600846E9
:100BC00000680E4908400B4908600846006820F498
:100BD000802008600846406820F4FE0048604FF41A
:100BE0001F008860FFF755FF4FF000600449086060
:100BF00010BD0000001002400000FFF8FFFFF6FEED
:100C000008ED00E010B51848008800F0200048B357
:100C10001548001D0088C4B214480088401C1349C0
:100C200008801348007828B901201149087011483C
:100C3000047017E000200E49087020020E49088059
:100C4000084600880B49097808440B490880084683
:100C500001880A480068FFF747FC08480068801CC4
:100C60000649086010BD0000003801401200002055
:100C7000160000201700002014000020180000209B
:100C800021B1828942F40052828104E082894DF6CA
:100C9000FF731A4082817047F0B503460024002696
:100CA0000025002040F66A17B94200D100BF18465F
:100CB000C1F3421401F01F06012707FA06F5012CC3
:100CC00001D10C3004E0022C01D1103000E01430CE
:100CD0001AB107682F43076002E00768AF43076057
:100CE000F0BD00002DE9F04786B005460E46002411
:100CF000A24600BFA1460027B08900B100BF2F4621
:100D00002C8A4CF6FF700440F08804432C82AC8996
:100D10004EF6F3100440B0883189084371890843C6
:100D20000443AC81AC8A4FF6FF400440B0890443D1
:100D3000AC8201A8FFF7A8FD1F48874202D1DDF869
:100D400010A001E0DDF80CA0A88900F4004040B13B
:100D50000AEBCA0000EB0A1031684900B0FBF1F859
:100D600007E00AEBCA0000EB0A1031688900B0FB0B
:100D7000F1F86420B8FBF0F004012009642101FBC4
:100D80001089A88900F4004040B1322000EBC9006E
:100D9000B0FBF1F000F00700044308E0322000EB64
:100DA00009106421B0FBF1F000F00F0004432C8126
:100DB00006B0BDE8F087000000380140014600BFE2
:100DC0007047000010B56FF00400FFF7D7FE0A4827
:100DD00000680A49B0FBF1F009490870084600783C
:100DE00000EB4001C1EBC0104FF6FF7101EAC000FB
:100DF0000449088010BD00003000002000127A0075
:100E000004000020060000200146114A12884A43CF
:100E10004FF0E0235A6100229A611A46126942F0AB
:100E200001021A6100BF4FF0E022106900F00102D8
:100E30001AB100F48032002AF5D04FF0E022126996
:100E400022F001024FF0E0231A6100229A617047FC
:100E50000600002000BF054A128802F04002002A66
:100E6000F9D0C2B2014B1B1D1A80704700380140F7
:100E700010B50446206807490840B0F1005F08D16A
:100E80006068054908602068FFF784F90248006837
:100E9000804710BD0000FE2F000000202DE9F05F0C
:100EA00006460F4690460024B3463D46A1461CE048
:100EB00068784FEA002A287850441FFA80FAAD1C5F
:100EC0002046611C8CB20E4921F810A0B4F5806F49
:100ED00007D100244FF480625846FFF753FD0BF50D
:100EE000006B09F102001FFA80F9C145E0D324B17B
:100EF000224603495846FFF745FDBDE8F09F000034
:100F000044000020002600254FF4A060FFF7A2FC5B
:100F10004FF4E13000F00EF9FFF754FFFFF74CFCFF
:100F2000FFF7CCFBFFF700FB71E020213848FFF70B
:100F3000AEFB38480088A8B13648008886420FD1F9
:100F400034480588002600203249088032A0FFF787
:100F500047F9294635A0FFF743F9FFF7BBFA01E04F
:100F60002C4806880A20FFF74FFF0020FFF7C2FB3E
:100F70000446042C1AD1B5B131A0FFF731F9354838
:100F8000406800F07F40B0F1006F08D12A46324936
:100F90003248FFF783FF32A0FFF722F906E034A0C2
:100FA000FFF71EF902E037A0FFF71AF9032C08D16A
:100FB00025B13AA0FFF714F9002502E03BA0FFF7A6
:100FC0000FF9022C10D12548406800F07F40B0F1A5
:100FD000006F06D13BA0FFF703F92048FFF748FF59
:100FE00002E03FA0FFF7FCF8012C10D143A0FFF76F
:100FF000F7F81848406800F07F40B0F1005F03D177
:101000001448FFF735FF02E043A0FFF7E9F88CE74B
:10101000000C014012000020D3C3BBA7B3CCD0F218
:10102000BDD3CAD5CDEAB3C9210D0A00B4FAC2EBCB
:10103000B3A4B6C83A256442797465730D0A0000FA
:10104000BFAACABCB8FCD0C2B9CCBCFE2E2E2E0D95
:101050000A0000000010002000100020008000089E
:10106000B9CCBCFEB8FCD0C2CDEAB3C9210D0A0090
:10107000B7C7464C415348D3A6D3C3B3CCD0F22113
:101080000D0A0000C3BBD3D0BFC9D2D4B8FCD0C2B4
:10109000B5C4B9CCBCFE210D0A000000B9CCBCFE21
:1010A000C7E5B3FDCDEAB3C9210D0A00C3BBD3D058
:1010B000BFC9D2D4C7E5B3FDB5C4B9CCBCFE210DC0
:1010C0000A000000BFAACABCD6B4D0D0464C4153D7
:1010D00048D3C3BBA7B4FAC2EB21210D0A0000001C
:1010E000B7C7464C415348D3A6D3C3B3CCD0F22C98
:1010F000CEDEB7A8D6B4D0D0210D0A00BFAACABC94
:10110000D6B4D0D05352414DD3C3BBA7B4FAC2EB2F
:1011100021210D0A00000000B7C75352414DD3A64C
:10112000D3C3B3CCD0F22CCEDEB7A8D6B4D0D02166
:101130000D0A000010B586B00446012144F20400F7
:10114000FFF792FB4FF40070ADF8140003208DF808
:10115000160018208DF8170005A91C48FFF703FAA0
:101160004FF48060ADF8140004208DF8170005A935
:101170001648FFF7F8F925208DF8000003208DF8B8
:1011800001008DF8020001208DF803006846FFF78A
:1011900029FB01940020ADF80800ADF80A00ADF875
:1011A0000C00ADF810000C20ADF80E0001A90848A5
:1011B000FFF798FD012240F225510548FFF76CFD2D
:1011C00001210348FFF75CFD06B010BD0008014097
:1011D00000380140F4110008000000204400000025
:1011E000280100083812000844000020BC3B000021
:1011F00044010008000000000000000001000000A1
:101200000000000000000000000000000080000856
:10121000000000000102030401020304060708099C
:101220000204060800A24A040000000000000000BA
:0812300001020304060708098E
:04000005080000ED02
:00000001FF
